:020000040000FA
:0400000049EF00F0D4
:060008006482BFED0AF066
:100018006480D8CF01F0E8CF02F0E0CF03F0D9CF69
:1000280004F0DACF05F0F29E9DBA9EAA0CD0C00E5D
:100038006324D96EDA6A000EDA22AECFDFFF6328B6
:100048003F0B636E9E9A9DB89EA812D061506018AF
:10005800D8B40DD0800E6024D96EDA6A000EDA2288
:10006800DF50AD6E60283F0B606E9E9801D09D9862
:10007800F28E05C0DAFF04C0D9FF03C0E0FF02C05A
:0E008800E8FF01C0D8FF649010006CEF0AF092
:10100000005010400004100023EC0AF099EC09F0A5
:10101000A00E136E860E146E010E156E000E166E67
:10102000CEEC09F040EC0AF00FEC09F0000E0B6E6C
:10103000000E0A6E000E0D6E000E0C6EFCEC09F038
:10104000F086F28ED08EF28C000E556E000E576E2A
:10105000000E566E92EC0AF006500710D8B40DD070
:101060007FEC0AF01C6E210E5624D96E000E57201C
:10107000DA6E1CC0DFFF564A572A57BE21D05750A0
:1010800003E15604D8A01CD0FF0E1C6EFF0E1D6E8F
:1010900056C01EF057C01FF01C501E261D501F22A8
:1010A000210E1E24D96E000E1F20DA6E0A0EDE18E5
:1010B000D8A406D0010E556E000E576E000E566E67
:1010C0005550D8B4C7D7000E556E36D0D8EC0AF0BC
:1010D000C1D7D3EC0AF0BED723501C6E1D6A1D5039
:1010E000000AD8A4B7D71C50460AD8B4F2D7080AC9
:1010F000D8B4ECD7AFD7DDEC0AF0ACD723501C6ED8
:101100001D6A1D50000AD8A4A5D71C50460AD8B4A1
:10111000E0D7080AD8B4EFD79DD722501C6E1D6ABD
:101120001D50000AD8A496D71C50420AD8B4E6D75E
:10113000040AD8B4D1D78ED721501C6E1D6A1D5019
:10114000000AD8A487D71C504D0AD8B4E6D7020AA3
:1011500081D7000E0F6E0DAE0AD00D1E0C1E0B1E99
:101160000A6C000E0B220C220D22010E0F6E09AE2E
:101170000AD0091E081E071E066C000E0722082250
:101180000922010E0F1A000E106E000E116E000ED5
:10119000126E000E136E0A500B100C100D10D8B406
:1011A0002AD0010E0E6E06D0D8900A360B360C36B9
:1011B0000D360E2A0DAEF8D7D890103611361236ED
:1011C00013360A50065C0B5007580C5008580D5047
:1011D0000958D8A009D00A50065E0B50075A0C5087
:1011E000085A0D50095A1080D8900D320C320B322B
:1011F0000A320E2EE1D70F50D8B408D0131E121E9B
:10120000111E106C000E11221222132210C006F0C3
:1012100011C007F012C008F013C009F01200000E50
:10122000636E000E626E000E616E000E606E000E48
:10123000186E4B0E196E000E1A6E000E1B6E800E8D
:10124000066E960E076E980E086E000E096E18C098
:1012500014F019C015F01AC016F01BC017F0060ED6
:10126000D8901436153616361736E82EF9D714C02E
:101270000AF015C00BF016C00CF017C00DF0A9EC69
:1012800008F00604AF6E949C948EAC9CAC98AC8A2B
:10129000110E146E3A0EE82EFED7142EFCD700D095
:1012A000AB8EAB9CAB889D8A9D889F989F9A1200BD
:1012B000000E0E6E000E0F6E000E106E000E116E00
:1012C0000A500B100C100D10D8B42AD0010E126E5B
:1012D00006D0D8900A360B360C360D36122A0DAED3
:1012E000F8D7D8900E360F36103611360A50065CF5
:1012F0000B5007580C5008580D500958D8A009D069
:101300000A50065E0B50075A0C50085A0D50095AE5
:101310000E80D8900D320C320B320A32122EE1D7E9
:101320000EC006F00FC007F010C008F011C009F0A1
:101330001200310E0A6EB20EE82EFED70A2EFCD72E
:1013400000D08C94030EA2EC0AF0110E0A6E3A0E35
:10135000E82EFED70A2EFCD700D0030EA2EC0AF02E
:101360007D0EE82EFED7320EB6EC0AF0280EB6EC53
:101370000AF0080EB6EC0AF0010EB6EC0AF0110EF7
:101380000A6E3A0EE82EFED70A2EFCD700D0060EC3
:10139000B6EC0AF00F0EC8EC0AF01200C69A94865A
:1013A0009488800E066E960E076E980E086E000EDC
:1013B000096E13C017F014C018F015C019F016C04C
:1013C0001AF0020ED8901736183619361A36E82E4B
:1013D000F9D717C00AF018C00BF019C00CF01AC0EA
:1013E0000DF058EC09F00604C86E800EC76E280E8A
:1013F000C66E000EC56E1200030E0A140A6E0B6A4A
:101400000F0E0C140C6E0D6A0A040B10D8A404D035
:10141000400E0C26000E0D22020E0A180B10D8A446
:1014200004D0100E0C26000E0D22030E0A180B100D
:10143000D8A404D0500E0C26000E0D220C508009AA
:10144000C8EC0AF01200000E896E000E8A6E000EC3
:101450008B6E000E8C6E000E8D6EC00E926EF20EB4
:10146000936E800E946E000E956E000EC26E0F0E7F
:10147000C16EC08E000EB56EB496B10EC06E120075
:10148000E6EC0AF0000E086ED00E076ECEEC0AF005
:10149000000E086E070E076ECEEC0AF0000E086E06
:1014A000000E076ECEEC0AF0E2EC0AF01200000E1D
:1014B000F2BE010E066EF29E8C86140EE82EFED74A
:1014C00000D08C96530EE82EFED700F006B002D066
:1014D000F29E01D0F28E120000EE80F0800EEE6AD5
:1014E000E806FDE100EE58F00C0EEE6AE806FDE1BC
:1014F00064906492000EF86E000104EF08F06250F0
:101500006318D8A402D0FF0E1200C00E6224D96E58
:10151000DA6A000EDA22DF50066E62283F0B626E36
:1015200006501200625063C008F0096A085E000E9F
:10153000095A400E0826000E09223F0E0814066EB6
:10154000076A1200076E8C500F0B8C6E0738F00B79
:101550008C108C6E57EC0AF01200C7B4FED7C5CFC2
:1015600006F01F0E0616D8B41200F7D7086E08381A
:101570000F0BA2EC0AF00850A2EC0AF012000600D1
:10158000F0B0F0A603D0010E5F6EF09064921100EF
:10159000096E8C940950B6EC0AF01200ADEC0AF01A
:1015A00007C0C9FF12008992899689908994120018
:1015B0008992899689808984120089828986899096
:1015C00089941200ADEC0AF0C5841200ADEC0AF06B
:0415D000C5801200C0
:020000040020DA
:08000000FFFFFFFFFFFFFFFF00
:020000040030CA
:0E000000FF021F1EFF8381FF0F400FE00F4025
:00000001FF
