:020000040000FA
:0400000007EF00F016
:0A0008006582EBED13F077EF18F0BE
:10100000003132334134353642373839432A3023C0
:101010004400501040000410496E697420636F6DE5
:10102000706C6574650A00256325630A00252E2A05
:031030007300004A
:1010340019EC19F014EC18F0A00E286E860E296E27
:10104400010E2A6E000E2B6E49EC18F025EC1AF0F6
:101054008CEC17F0000E206E000E1F6E000E226E38
:10106400000E216E40EC19F0180E1C6E100E1D6E51
:101074009CEC16F0070E0001996F580E986F590EEC
:10108400E82EFED7982FFCD7992FFAD700D0000E60
:101094000001E26F000EE56F000EE46F000EE66FD4
:1010A400000EE36F000E1F6E000E206E700E216E98
:1010B400440E226EF3C01BF0F4C01CF0F5C01DF00A
:1010C400F6C01EF0A7EC12F01BC034F01CC035F0C3
:1010D4001DC036F01EC037F0000E386E000E396E9B
:1010E400480E3A6E430E3B6EF2EC0DF034C0EBF05A
:1010F40035C0ECF036C0EDF037C0EEF0000E1F6ED8
:10110400000E206E700E216E440E226EEFC01BF096
:10111400F0C01CF0F1C01DF0F2C01EF0A7EC12F0FC
:101124001BC034F01CC035F01DC036F01EC037F0B3
:10113400000E386E000E396E480E3A6E430E3B6E4A
:10114400F2EC0DF034C0E7F035C0E8F036C0E9F059
:1011540037C0EAF00001E351D8B4D1D0F905FA114F
:10116400D8A4CDD0000E336E000E346E000E356E52
:10117400410E366EEBC02FF0ECC030F0EDC031F014
:10118400EEC032F0E7C02BF0E8C02CF0E9C02DF03F
:10119400EAC02EF08CEC19F02BC037F02CC038F0DC
:1011A4002DC039F02EC03AF0CEEC15F0D8B009D0ED
:1011B40005EC1BF0000E0001F86F020EF76F010E34
:1011C400E66F000E336E000E346E000E356E410E67
:1011D400366EE7C02FF0E8C030F0E9C031F0EAC065
:1011E40032F0EBC02BF0ECC02CF0EDC02DF0EEC0D3
:1011F4002EF08CEC19F02BC037F02CC038F02DC039
:1012040039F02EC03AF0CEEC15F0D8B009D008EC85
:101214001BF0000E0001F86F010EF76F010EE66F70
:101224000001E651D8B433D0F705F811D8A42FD073
:10123400E7C02FF0E8C030F0E9C031F0EAC032F086
:10124400EBC02BF0ECC02CF0EDC02DF0EEC02EF076
:101254008CEC19F02BC033F02CC034F02DC035F0D9
:101264002EC036F0000E376E000E386EA00E396EAA
:10127400400E3A6ECEEC15F0D8B009D0DFEC1AF07F
:10128400000E0001F86F000EF76F000EE66F00010C
:10129400E651D8B434D0020EF719F811D8A42FD0DF
:1012A400EBC02FF0ECC030F0EDC031F0EEC032F006
:1012B400E7C02BF0E8C02CF0E9C02DF0EAC02EF016
:1012C4008CEC19F02BC033F02CC034F02DC035F069
:1012D4002EC036F0000E376E000E386EA00E396E3A
:1012E400400E3A6ECEEC15F0D8B009D0DFEC1AF00F
:1012F400000E0001F86F000EF76F000EE66F00019C
:10130400E351D8B4D2D0020EF919FA11D8A4CDD031
:10131400000E336E000E346E000E356E410E366EC6
:10132400EBC02FF0ECC030F0EDC031F0EEC032F085
:10133400E7C02BF0E8C02CF0E9C02DF0EAC02EF095
:101344008CEC19F02BC037F02CC038F02DC039F0DC
:101354002EC03AF0CEEC15F0D8B009D008EC1BF052
:10136400000E0001F86F010EF76F010EE66F000E1C
:10137400336E000E346E000E356E410E366EE7C0CD
:101384002FF0E8C030F0E9C031F0EAC032F0EBC031
:101394002BF0ECC02CF0EDC02DF0EEC02EF08CEC58
:1013A40019F02BC037F02CC038F02DC039F02EC006
:1013B4003AF0CEEC15F0D8B009D005EC1BF0000ED5
:1013C4000001F86F020EF76F010EE66F0001E6519F
:1013D400D8B433D0F705F811D8A42FD0E7C02FF034
:1013E400E8C030F0E9C031F0EAC032F0EBC02BF0D5
:1013F400ECC02CF0EDC02DF0EEC02EF08CEC19F00A
:101404002BC033F02CC034F02DC035F02EC036F094
:10141400000E376E000E386EA00E396E400E3A6E16
:10142400CEEC15F0D8B009D0E4EC1AF0000E0001AF
:10143400F86F000EF76F000EE66F0001E651D8B4A6
:1014440034D0020EF719F811D8A42FD0EBC02FF026
:10145400ECC030F0EDC031F0EEC032F0E7C02BF05C
:10146400E8C02CF0E9C02DF0EAC02EF08CEC19F0A5
:101474002BC033F02CC034F02DC035F02EC036F024
:10148400000E376E000E386EA00E396E400E3A6EA6
:10149400CEEC15F0D8B009D0E4EC1AF0000E00013F
:1014A400F86F000EF76F000EE66F8CEC1AF01B500D
:1014B4001C10D8B40ED079EC1AF00001986FB60E57
:1014C400E425D96E000EE521DA6E98C0DFFFE44B07
:1014D400E52B0001E5BF21D0E55103E1E405D8A0E7
:1014E4001CD0FF0E986FFF0E996FE4C09AF0E5C010
:1014F4009BF098519A2799519B23B60E9A25D96E41
:10150400000E9B21DA6E0A0EDE18D8A406D0010E56
:10151400E26F000EE56F000EE46FE251D8B483D1A0
:10152400000EE26F72D1000E206E000E1F6E000ED0
:10153400226E000E216E40EC19F0000E0001FA6FCD
:10154400010EF96F010EE36FDFEC1AF06CD1000E9F
:10155400206E000E1F6E000E226E000E216E40ECF7
:1015640019F0F5EC1AF05FD1000E206E000E1F6E1C
:10157400000E226E000E216E40EC19F0F1EC1AF010
:1015840052D1000E206E000E1F6E000E226E000E51
:10159400216E40EC19F0000E0001E36FC7EC1AF065
:1015A40042D1B851986F996B9951000AD8A43BD194
:1015B4009851420AD8B4B7D7040AD8B4E2D70A0A71
:1015C400D8B4C5D71E0AD8B4CFD72DD1000E206EFB
:1015D400000E1F6E000E226E000E216E40EC19F0FC
:1015E400000E0001FA6F020EF96F010EE36FE4ECD6
:1015F4001AF019D1000E206E000E1F6E000E226E1E
:10160400000E216E40EC19F0FDEC1AF00CD1000E26
:10161400206E000E1F6E000E226E000E216E40EC36
:1016240019F0F9EC1AF0FFD0B851986F996B9951F1
:10163400000AD8A4F8D09851420AD8B4C7D7040AEB
:10164400D8B49FD70A0AD8B4D5D71E0AD8B4DFD7DE
:10165400EAD0000E206E000E1F6E000E226E000EE9
:10166400216E40EC19F00EEC1BF0DDD0000E206E64
:10167400000E1F6E000E226E000E216E40EC19F05B
:101684000BEC1BF0D0D0000E206E000E1F6E000E6F
:10169400226E000E216E40EC19F080D7B851986F7D
:1016A400996B9951000AD8A4BED09851460AD8B46F
:1016B400EAD70A0AD8B4CDD71E0AD8B4D7D7B3D03C
:1016C400B751986F996B9951000AD8A4ACD098512E
:1016D400420AD8B4A9D7040AD8B463D7150AD8B42F
:1016E400DDD7A1D0000E206E000E1F6E000E226EFC
:1016F400000E216E40EC19F0CF0E0001866F000E33
:10170400876F2D0E886F100E896F000E8B6F100E71
:101714008A6FB80E8C6F000E8D6FA0EC18F0CF0E90
:101724001E6E000E1F6E67EC19F07DD0000E206E49
:10173400010E1F6E000E226E000E216E40EC19F099
:10174400CF0E0001866F000E876F2D0E886F100E6E
:10175400896F000E8B6F100E8A6FB80E8C6F000E9F
:101764008D6FA0EC18F0DBD7000E206E020E1F6EFA
:10177400000E226E000E216E40EC19F0CF0E000117
:10178400866F000E876F2D0E886F100E896F000E06
:101794008B6F100E8A6FB80E8C6F000E8D6FA0ECDD
:1017A40018F0BDD7000E206E030E1F6E000E226EC1
:1017B400000E216E40EC19F0CF0E0001866F000E72
:1017C400876F2D0E886F100E896F000E8B6F100EB1
:1017D4008A6FB80E8C6F000E8D6FA0EC18F09FD737
:1017E400B751986F996B9951000AD8A41CD098519D
:1017F400310AD8B477D7030AD8B498D7010AD8B431
:10180400B3D7070AD8B4CED70ED0B651986F996B18
:101814009951000AD8A407D09851440AD8B4E0D703
:10182400090AD8B44DD70001FB51D8B43BD4000EFB
:10183400FB6F81380F0B0F0BE16F9D0E866F000E4F
:10184400876F270E886F100E896F000E8B6F4B0EFB
:101854008A6F010EE125F66EF76A100EF722080072
:10186400F5508C6F8D6BA0EC18F09D0E1C6E000E65
:101874001D6E9CEC16F016D441C0D9FF42C0DAFFAD
:10188400DECFF6FFDDCFF7FF0800F550250AD8A418
:101894008DD141C0D9FF42C0DAFFDE2A000EDD221D
:1018A400000E556E000E546E54C058F055C059F0D9
:1018B4005668576841C0D9FF42C0DAFFDECFF6FF51
:1018C400DDCFF7FF0800F5502A0AD8A423D041C081
:1018D400D9FF42C0DAFFDE2A000EDD2243C0D9FF61
:1018E40044C0DAFFDFCF45F0020EDE26DFCF46F03C
:1018F400000EDD2245C0D9FF46C0DAFFDECF54F02A
:10190400DDCF55F055AE3FD05880546C551ED8B03D
:10191400552A39D041C0D9FF42C0DAFFDECF22F0C8
:10192400DDCF23F09AEC14F022C054F023C055F01C
:1019340007D041C0D9FF42C0DAFFDE2A000EDD2203
:10194400D00E456EFF0E466E41C0D9FF42C0DAFF8D
:10195400DECFF6FFDDCFF7FF0800F550476E486A8B
:101964004550472646504822485006E10A0E475C37
:10197400D8B002D0010E01D0000E4B6E4C6A4B5011
:101984004C10D8A4D6D741C0D9FF42C0DAFFDECF6D
:10199400F6FFDDCFF7FF0800F5502E0AD8A46DD06E
:1019A400000E576E000E566E41C0D9FF42C0DAFFDA
:1019B400DE2A000EDD2241C0D9FF42C0DAFFDECFAD
:1019C400F6FFDDCFF7FF0800F5502A0AD8A41CD093
:1019D40041C0D9FF42C0DAFFDE2A000EDD2243C037
:1019E400D9FF44C0DAFFDFCF45F0020EDE26DFCF99
:1019F40046F0000EDD2245C0D9FF46C0DAFFDECF37
:101A040056F0DDCF57F039D041C0D9FF42C0DAFFDC
:101A1400DECF22F0DDCF23F09AEC14F022C056F092
:101A240023C057F007D041C0D9FF42C0DAFFDE2AF5
:101A3400000EDD22D00E456EFF0E466E41C0D9FF6A
:101A440042C0DAFFDECFF6FFDDCFF7FF0800F55026
:101A5400476E486A4550472646504822485006E19A
:101A64000A0E475CD8B002D0010E01D0000E4D6EB4
:101A74004E6A4D504E10D8A4D6D741C0D9FF42C0AB
:101A8400DAFFDECFF6FFDDCFF7FF0800F550630A7B
:101A9400D8A426D041C0D9FF42C0DAFFDE2A000E06
:101AA400DD2243C0D9FF44C0DAFFDFCF45F0020E88
:101AB400DE26DFCF46F0000EDD2245C0D9FF46C04A
:101AC400DAFFDF504F6E3FC03AF040C03BF04FC0EA
:101AD4003CF0F2EC18F03AC03FF03BC040F012008A
:101AE40041C0D9FF42C0DAFFDECFF6FFDDCFF7FFFA
:101AF4000800F550730AD8A42AD041C0D9FF42C0C7
:101B0400DAFFDE2A000EDD2243C0D9FF44C0DAFF2B
:101B1400DFCF45F0020EDE26DFCF46F0000EDD22D9
:101B240045C0D9FF46C0DAFFDECF49F0DDCF4AF029
:101B34003FC028F040C029F049C02AF04AC02BF029
:101B44003AEC15F028C03FF029C040F0120041C023
:101B5400D9FF42C0DAFFDECFF6FFDDCFF7FF080082
:101B6400F550250AD8A416D041C0D9FF42C0DAFFE7
:101B7400DE2A000EDD22000E206E250E1F6E3FC0F1
:101B840021F040C022F0F1EC16F0000E406E010E80
:101B94003F6E120041C0D9FF42C0DAFFDE2A000EB8
:101BA400DD22000E406E000E3F6E120041C0D9FFD0
:101BB40042C0DAFFDECFF6FFDDCFF7FF0800F550B5
:101BC4001F6E206A3FC021F040C022F0F1EC16F0F5
:101BD40041C0D9FF42C0DAFFDE2A000EDD22D5D78C
:101BE4003750800B406E37503724466E36BE4680E1
:101BF4004650D8B40DD04628D8A408D0000E346E70
:101C0400000E356E000E366E000E376E368E08D01E
:101C1400000E346E000E356E000E366E000E376EFA
:101C24003B50800B401A3B503B24456E3ABE4580E6
:101C34004550D8B40DD04528D8A408D0000E386E2D
:101C4400000E396E000E3A6E000E3B6E3A8E08D0CE
:101C5400000E386E000E396E000E3A6E000E3B6EAA
:101C64004550D8B403D04650D8A409D0000E346EE1
:101C7400000E356E000E366E000E376E12003A50AE
:101C84003402F3CF4BF0F4CF4CF04B50416E426A28
:101C9400436A446A4C50476E486A496A4A6A3950F2
:101CA4003502F3CF4BF0F4CF4CF04B504126000EED
:101CB4004222432244224C504726000E4822492205
:101CC4004A2238503602F3CF4BF0F4CF4CF04B504D
:101CD4004126000E4222432244224C504726000E45
:101CE400482249224A2243C044F042C043F041C042
:101CF40042F0416A38503502F3CF4BF0F4CF4CF048
:101D04004B5041264C504222000E4322000E4422E6
:101D140039503402F3CF4BF0F4CF4CF04B50412602
:101D24004C504222000E4322000E442243C044F091
:101D340042C043F041C042F0416A38503402F3CF0C
:101D44004BF0F4CF4CF04B5041264C504222000E45
:101D54004322000E44223A503502F3CF4BF0F4CF25
:101D64004CF04B5047264C504822000E4922000E9E
:101D74004A2239503602F3CF4BF0F4CF4CF04B509B
:101D840047264C504822000E4922000E4A223A505F
:101D94003602F3CF4BF0F4CF4CF04B503C6E4C502A
:101DA4003D6E3E6A3F6A3EC03FF03DC03EF03CC0DF
:101DB4003DF03C6A3C5047263D5048223E50492263
:101DC4003F504A2241C03CF042C03DF043C03EF087
:101DD40044C03FF0190E05D0D8903F323E323D3218
:101DE4003C32E82EF9D73C5047263D5048223E501D
:101DF40049223F504A2243C044F042C043F041C00C
:101E040042F0416A455046C03CF03D6A3C26000E13
:101E14003D22820E3C244B6EFF0E3D204C6E0FD0B3
:101E2400D8904736483649364A3644BE4780D8901B
:101E340041364236433644364B06D8A04C0649AEAA
:101E4400EFD7000E456E44AE17D0FF0E41143C6E22
:101E5400FF0E42143D6EFF0E43143E6E7F0E44147B
:101E64003F6E3C503D103E103F10D8B403D0010EDD
:101E7400456E02D047B0FBD74550D8B41FD0010EF1
:101E84004726000E482249224A224AA017D047C0BA
:101E94003CF048C03DF049C03EF04AC03FF03F34FA
:101EA4003F323E323D323C323CC047F03DC048F008
:101EB4003EC049F03FC04AF04B4A4C2A4CBE0DD0BC
:101EC4004C5003E14B28D8A008D0000E476E000EFA
:101ED400486E800E496E7F0E20D04CBE05D04C500B
:101EE4000EE14B04D8B00BD0000E476E000E486EC6
:101EF400000E496E000E4A6E000E406E0FD04BC0AD
:101F040046F0FF0E4716FF0E48167F0E4916000EC8
:101F14004A1646B0498ED89046304A6E40504A120E
:101F240047C034F048C035F049C036F04AC037F0F5
:101F340012001E50800B276E1E501E24296E1DBEDB
:101F440029802950D8B40DD02928D8A408D0000E4F
:101F54001B6E000E1C6E000E1D6E000E1E6E1D8E7E
:101F640006D0000E1B6E000E1C6E000E1D6E000EC1
:101F74001E6E2250800B286E27502818D8A4278C58
:101F840022502224286E21BE28802850D8B40DD097
:101F94002828D8A408D0000E1F6E000E206E000E54
:101FA400216E000E226E218E06D0000E1F6E000ED2
:101FB400206E000E216E000E226E2950285CD8B0CF
:101FC40022D027AC02D0800E271A29C02AF028C0BC
:101FD40029F02AC028F01BC02AF01FC01BF02AC019
:101FE4001FF01CC02AF020C01CF02AC020F01DC025
:101FF4002AF021C01DF02AC021F01EC02AF022C000
:102004001EF02AC022F0000E2A6E295028C023F0A8
:10201400246A235E000E245A24BE2CD0245004E1EA
:102024001A0E235CD8A026D01B501C101D101E10A5
:10203400D8B402D0010E01D0000E2A6E000E1B6E21
:10204400000E1C6E000E1D6E000E1E6E28C029F0C0
:1020540015D02AA005D0D8902A3001092A6E02D0C2
:10206400D8902A321BB02A8E1E341E321D321C32E6
:102074001B32292A2850295CD8A0EBD727BC28D0AA
:102084002950D8A409D0000E1B6E000E1C6E000E41
:102094001D6E000E1E6E12001F501B2620501C22A7
:1020A40021501D2222501E221EA071D02AA005D02C
:1020B400D8902A3001092A6E02D0D8902A321BB057
:1020C4002A8E1E341E321D321C321B32292A5FD046
:1020D4001F501B5C20501C5821501D581E50800A54
:1020E400236E2250800A2358D8B025D01B501F5C81
:1020F400236E1C502058246E1D502158256E1E50EE
:102104002258266EFF0E23241B6EFF0E24201C6E05
:10211400FF0E25201D6EFF0E26201E6E800E271A30
:102124002A6C2A50D8A40FD0010E1B26000E1C22A4
:102134001D221E2208D01F501B5E20501C5A215005
:102144001D5A22501E5A1B501C101D101E10D8A4BC
:102154001CD02A50D8A419D0000E1B6E000E1C6E81
:10216400000E1D6E000E1E6E1200D8901B361C361B
:102174001D361E362ABE1B802AA002D0D88001D06C
:10218400D8902A362950D8A429061DAEEED7000EC1
:10219400286E2AAE0BD02AC023F07F0E2316D8B4A3
:1021A40003D0010E286E02D01BB0FBD72850D8B440
:1021B40020D0010E1B26000E1C221D221E221EA052
:1021C40018D01BC023F01CC024F01DC025F01EC075
:1021D40026F02634263225322432233223C01BF043
:1021E40024C01CF025C01DF026C01EF02928D8A448
:1021F400292A2928D8B403D02950D8A40DD0000EF8
:102204001B6E000E1C6E000E1D6E000E1E6E2950FD
:10221400D8A402D0000E276E29A002D01D8E01D0B2
:102224001D9ED89029301E6E27BE1E8E1BC01BF02B
:102234001CC01CF01DC01DF01EC01EF01200045076
:10224400800B0D6E045004240F6E03BE0F800F50DC
:10225400D8B40DD00F28D8A408D0000E016E000EFB
:10226400026E000E036E000E046E038E06D0000E86
:10227400016E000E026E000E036E000E046E085016
:10228400800B0E6E0D500E18D8A40D8C0850082427
:102294000E6E07BE0E800E50D8B40DD00E28D8A4F2
:1022A40008D0000E056E000E066E000E076E000EBE
:1022B400086E078E06D0000E056E000E066E000E28
:1022C400076E000E086E0F500E5CD8B022D00DAC15
:1022D40002D0800E0D1A0FC010F00EC00FF010C007
:1022E4000EF001C010F005C001F010C005F002C0EE
:1022F40010F006C002F010C006F003C010F007C0D2
:1023040003F010C007F004C010F008C004F010C0BF
:1023140008F0000E106E0F500EC009F00A6A095E34
:10232400000E0A5A0ABE2CD00A5004E11A0E095CA7
:10233400D8A026D00150021003100410D8B402D043
:10234400010E01D0000E106E000E016E000E026E22
:10235400000E036E000E046E0EC00FF015D010A018
:1023640005D0D89010300109106E02D0D8901032E8
:1023740001B0108E043404320332023201320F2AC7
:102384000E500F5CD8A0EBD70DBC28D00F50D8A4AA
:1023940009D0000E016E000E026E000E036E000ED8
:1023A400046E120005500126065002220750032233
:1023B4000850042204A071D010A005D0D890103089
:1023C4000109106E02D0D890103201B0108E04347E
:1023D40004320332023201320F2A5FD00550015C0D
:1023E40006500258075003580450800A096E0850DA
:1023F400800A0958D8B025D00150055C096E0250F6
:1024040006580A6E035007580B6E045008580C6E99
:10241400FF0E0924016EFF0E0A20026EFF0E0B2030
:10242400036EFF0E0C20046E800E0D1A106C1050FB
:10243400D8A40FD0010E0126000E0222032204228A
:1024440008D00550015E0650025A0750035A08503E
:10245400045A0150021003100410D8A41CD01050C8
:10246400D8A419D0000E016E000E026E000E036E89
:10247400000E046E1200D89001360236033604367C
:1024840010BE018010A002D0D88001D0D8901036A0
:102494000F50D8A40F0603AEEED7000E0E6E10AE8A
:1024A4000BD010C009F07F0E0916D8B403D0010E6A
:1024B4000E6E02D001B0FBD70E50D8B420D0010E5E
:1024C4000126000E02220322042204A018D001C017
:1024D40009F002C00AF003C00BF004C00CF00C3485
:1024E4000C320B320A32093209C001F00AC002F080
:1024F4000BC003F00CC004F00F28D8A40F2A0F2837
:10250400D8B403D00F50D8A40DD0000E016E000E25
:10251400026E000E036E000E046E0F50D8A402D09B
:10252400000E0D6E0FA002D0038E01D0039ED89032
:102534000F30046E0DBE048E01C001F002C002F023
:1025440003C003F004C004F012001E50800B2B6E75
:102554001E501E24326E1DBE32803250D8B40DD0AF
:102564003228D8A408D0000E1B6E000E1C6E000E7C
:102574001D6E000E1E6E1D8E06D0000E1B6E000E0C
:102584001C6E000E1D6E000E1E6E2250800B2B1A48
:1025940022502224336E21BE33803350D8B40DD060
:1025A4003328D8A408D0000E1F6E000E206E000E33
:1025B400216E000E226E218E06D0000E1F6E000EBC
:1025C400206E000E216E000E226E1F50201021106E
:1025D4002210D8A417D0000E1B6E000E1C6E000E25
:1025E4001D6E000E1E6E800E1D127F0E1E122B50CD
:1025F4001E121BC01BF01CC01CF01DC01DF01EC011
:102604001EF012003250D8A409D0000E1B6E000E2A
:102614001C6E000E1D6E000E1E6E1200335032C072
:1026240023F0246A235E000E245A7F0E23242C6E8A
:10263400000E24202D6E1BC027F01CC028F01DC0E6
:1026440029F01EC02AF0000E1B6E000E1C6E000E38
:102654001D6E000E1E6E000E2E6E000E2F6E000EEE
:10266400306E000E316E000E336E28D03350D8B465
:1026740011D0D8902736283629362A36D8901B36DA
:102684001C361D361E3631BE1B80D8902E362F3692
:10269400303631361F50275C205028582150295895
:1026A40022502A58D8A009D0318C1F50275E2050C0
:1026B400285A2150295A22502A5A332A190E33648F
:1026C400D5D72750281029102A10D8B411D02E801D
:1026D4000FD0D8901B361C361D361E3631BE1B80DB
:1026E400D8902E362F36303631362C06D8A02D060B
:1026F4001DAEEFD7000E336E31AE17D0FF0E2E1481
:10270400236EFF0E2F14246EFF0E3014256E7F0EE1
:102714003114266E2350241025102610D8B403D06B
:10272400010E336E02D01BB0FBD73350D8B41FD088
:10273400010E1B26000E1C221D221E221EA017D0D5
:102744001BC023F01CC024F01DC025F01EC026F0C1
:102754002634263225322432233223C01BF024C0EF
:102764001CF025C01DF026C01EF02C4A2D2A2DBEBB
:1027740010D02D5003E12C28D8A00BD0000E2D6EC4
:102784002C68000E1B6E000E1C6E000E1D6E000EDB
:102794001E6E2DBE05D02D5011E12C04D8B00ED0E4
:1027A400000E2D6E000E2C6E000E1B6E000E1C6EA5
:1027B400000E1D6E000E1E6E000E2B6E2CC032F02D
:1027C40032A002D01D8E01D01D9ED89032301E6ED4
:1027D4000ED70600D9CF19F0DACF1AF0F29EF2B86C
:1027E400F2A238D083A01BD0F3C001F0F4C002F0F1
:1027F400F5C003F0F6C004F0000E056E000E066E80
:10280400800E076E3F0E086E21EC11F001C0F3F04C
:1028140002C0F4F003C0F5F004C0F6F01AD0F3C01F
:1028240011F0F4C012F0F5C013F0F6C014F0000E6D
:10283400156E000E166E800E176E3F0E186EAFECFE
:1028440019F011C0F3F012C0F4F013C0F5F014C085
:10285400F6F0F292F0B8F0A238D083A21BD0EFC009
:1028640001F0F0C002F0F1C003F0F2C004F0000E79
:10287400056E000E066E800E076E3F0E086E21EC8C
:1028840011F001C0EFF002C0F0F003C0F1F004C099
:10289400F2F01AD0EFC011F0F0C012F0F1C013F052
:1028A400F2C014F0000E156E000E166E800E176E38
:1028B4003F0E186EAFEC19F011C0EFF012C0F0F03B
:1028C40013C0F1F014C0F2F0F092F0B0F0A604D00E
:1028D400010E0001FB6FF0909DBA9EAA0CD0400E31
:1028E4005D24D96EDA6A010EDA22AECFDFFF5D28ED
:1028F4003F0B5D6E9E9A9DB89EA813D05B505A18EC
:10290400D8B40DD0000E5A24D96EDA6A010EDA2238
:10291400DF50AD6E5A283F0B5A6E9E9802D09E9897
:102924009D98F28E1AC0DAFF19C0D9FF6592110082
:10293400000E306E000E2F6E000E296E000E286EF3
:1029440002D0224A232A010E2E6E22C0F6FF23C093
:10295400F7FF0800F550200AD8B418D0F70E246EFB
:10296400FF0E256E22C0F6FF23C0F7FF0800F550C6
:10297400266E276A2450262625502722275004E154
:10298400050E265CD8A002D0000E2E6E2EC02AF0B2
:102994002B6A2A502B10D8B408D0D3D7000E296E36
:1029A400010E286E224A232A2ED022C0F6FF23C00D
:1029B400F7FF0800F550246E256A2550000AD8A4B4
:1029C40022D024502B0AD8B4EDD7060AD8B4E6D7BF
:1029D4001AD02FC01BF030C01CF0000E1E6E0A0E61
:1029E4001D6E66EC1AF022C0F6FF23C0F7FF080044
:1029F400F5501B5E000E1C5A300E1B242F6E000E69
:102A04001C20306ECFD7D00E246EFF0E256E22C050
:102A1400F6FF23C0F7FF0800F550266E276A2450FE
:102A2400262625502722275006E10A0E265CD8B018
:102A340002D0010E01D0000E2C6E2D6A2C502D10E8
:102A4400D8A4C7D728502910D8A40DD02FC024F05B
:102A540030C025F0241E251E244A252A24C022F035
:102A640025C023F012002FC022F030C023F0120042
:102A740020EE5EF010EE2DF0060EDBCFE3FFE8064D
:102A8400FCE22AC038F02BC039F038503910D8A4F1
:102A940004D02D0E386E000E396E38C01BF039C0CC
:102AA4001CF03CEC1AF01BC03CF01CC03DF056C0BE
:102AB4003AF057C03BF03BBE0ED03C503A5C3B5022
:102AC400800A2C6E3D50800A2C58D8B004D03AC0ED
:102AD4003CF03BC03DF03CC03AF03DC03BF054C03C
:102AE40036F055C037F058A00DD016D0000E206E29
:102AF400200E1F6E28C021F029C022F0F1EC16F040
:102B04003C4A3D2A36503C5C3D50800A2C6E37507E
:102B1400800A2C58D8A0EAD7000E356E000E346E09
:102B240013D038C0D9FF39C0DAFFDF502C6E2C50D7
:102B34001F6E206A28C021F029C022F0F1EC16F0A3
:102B4400384A392A344A352A3A50345C3550800A96
:102B54002C6E3B50800A2C58D8A0E3D758B00DD027
:102B640016D0000E206E200E1F6E28C021F029C042
:102B740022F0F1EC16F03C4A3D2A36503C5C3D50C4
:102B8400800A2C6E3750800A2C58D8A0EAD73CC053
:102B940028F03DC029F01200000E33143B6E000EE5
:102BA40034143C6E800E35143D6E7F0E36143E6E2A
:102BB4003B503C103D103E10D8A408D0000E336E9C
:102BC400000E346E000E356E000E366E000E371495
:102BD4003B6E000E38143C6E800E39143D6E7F0E31
:102BE4003A143E6E3B503C103D103E10D8A408D021
:102BF400000E376E000E386E000E396E000E3A6EFF
:102C040036AE09D0336C341ED8B0342A351ED8B051
:102C1400352A800E36563AAE09D0376C381ED8B0F5
:102C2400382A391ED8B0392A800E3A56000E331A83
:102C3400000E341A000E351A800E361A000E371A9A
:102C4400000E381A000E391A800E3A1A3750335CC7
:102C540038503458395035583A503658D8B002D0D4
:102C6400D8901200D8801200000E246E22AE0AD032
:102C7400221E211E201E1F6C000E20222122222231
:102C8400010E246E1EAE0AD01E1E1D1E1C1E1B6CC1
:102C9400000E1C221D221E22010E241A000E256E77
:102CA400000E266E000E276E000E286E1F50201098
:102CB40021102210D8B42AD0010E236E06D0D89049
:102CC4001F36203621362236232A22AEF8D7D89052
:102CD40025362636273628361F501B5C20501C58B4
:102CE40021501D5822501E58D8A009D01F501B5ED9
:102CF40020501C5A21501D5A22501E5A2580D8900B
:102D04002232213220321F32232EE1D72450D8B46C
:102D140008D0281E271E261E256C000E26222722D8
:102D2400282225C01BF026C01CF027C01DF028C097
:102D34001EF01200000E216E000E206E35D02050C1
:102D44001C241E6E21501D201F6E1EC0F6FF1FC0C6
:102D5400F7FF000EF86E0F0EF76403D00800F5506D
:102D640005D0F6CFE9FFF7CFEAFFEF500009D8B45A
:102D7400120020501C241E6E21501D201F6E1EC0E8
:102D8400F6FF1FC0F7FF000EF86E0F0EF76403D0B6
:102D94000800F55005D0F6CFE9FFF7CFEAFFEF5072
:102DA4009CEC1AF0204A212A20501C241E6E21502B
:102DB4001D201F6E1EC0F6FF1FC0F7FF000EF86E29
:102DC4000F0EF76403D00800F55005D0F6CFE9FFE5
:102DD400F7CFEAFFEF500009D8B41200B0D7215062
:102DE4002210D8B404D021502210D8A404D01F50EB
:102DF400CEEC1AF0120020EE04F02150D926225015
:102E0400DA22DE50DE10D8B416D020EE04F02150C1
:102E1400D9262250DA2210EE02F02150E126225067
:102E2400E222DE50E65CE650800A276EDE50800A1D
:102E34002758D8B0120020EE02F02150D926225093
:102E4400DA22DECF23F0DDCF24F021C0D9FF22C067
:102E5400DAFFDECF25F0DDCF26F023502524D96E0E
:102E640024502620DA6E1FC0DFFF20EE02F021502E
:102E7400D9262250DA22DE2A000EDD22120058A0C2
:102E84000AD031C028F032C029F02FC02AF030C057
:102E94002BF0F1EC19F034BE05D033C038F034C057
:102EA40039F004D0000E396E000E386E000E376E05
:102EB400000E366E0CD0000E206E200E1F6E2FC03A
:102EC40021F030C022F0F1EC16F0364A372A38509F
:102ED400365C3750800A356E3950800A3558D8A090
:102EE400EAD758B00AD031C028F032C029F02FC038
:102EF4002AF030C02BF0F1EC19F031C01BF032C0D5
:102F04001CF03CEC1AF038501B242F6E39501C2056
:102F1400306E1200000E5D6E000E5C6E000E5B6E75
:102F2400000E5A6E000E2D6E4B0E2E6E000E2F6E7E
:102F3400000E306E800E1B6E960E1C6E980E1D6E6B
:102F4400000E1E6E2DC029F02EC02AF02FC02BF0CB
:102F540030C02CF0060ED89029362A362B362C3663
:102F6400E82EF9D729C01FF02AC020F02BC021F089
:102F74002CC022F036EC16F01B04AF6E949C948E99
:102F8400AC9CAC98AC8A110E296E3A0EE82EFED792
:102F9400292EFCD700D0AB8EAB9CAB889D8A9D8834
:102FA4001200000E236E000E246E000E256E000E1D
:102FB400266E1F50201021102210D8B42AD0010EE2
:102FC400276E06D0D8901F36203621362236272A7F
:102FD40022AEF8D7D89023362436253626361F500D
:102FE4001B5C20501C5821501D5822501E58D8A03C
:102FF40009D01F501B5E20501C5A21501D5A2250CC
:103004001E5A2380D8902232213220321F32272E9A
:10301400E1D723C01BF024C01CF025C01DF026C03E
:103024001EF01200310E1F6EB20EE82EFED71F2EB8
:10303400FCD700D08C94030EAAEC1AF0110E1F6E6C
:103044003A0EE82EFED71F2EFCD700D0030EAAECB2
:103054001AF07D0EE82EFED7320EBEEC1AF0280EC2
:10306400BEEC1AF0080EBEEC1AF0010EBEEC1AF01B
:10307400110E1F6E3A0EE82EFED71F2EFCD700D07D
:10308400060EBEEC1AF00F0ED4EC1AF01200C69A1B
:1030940094869488800E1B6E960E1C6E980E1D6E80
:1030A400000E1E6E28C02CF029C02DF02AC02EF070
:1030B4002BC02FF0020ED8902C362D362E362F36FC
:1030C400E82EF9D72CC01FF02DC020F02EC021F01F
:1030D4002FC022F0D3EC17F01B04C86E800EC76E0D
:1030E400280EC66E000EC56E1200020EF66E360E67
:1030F400F76E000EF86E00EE5EF010EE07F00900B9
:10310400F5CFEEFFE550E150FAE101EE00F0A00E3C
:10311400EE6AE806FDE100EEE7F0150EEE6AE80659
:10312400FDE100EE52F00C0EEE6AE806FDE165905A
:103134006592000EF86E00011AEF08F08A0E000185
:10314400906F000E916F86C092F087C093F0000ECE
:10315400956F000E946F000E976F000E966F920E8F
:10316400806F000E816F88C082F089C083F0900E5A
:10317400846F000E856FC9EC18F000019451862508
:10318400D96E95518721DA6E000EDF6E120082C06F
:1031940050F083C051F0000E536E000E526E12D0E8
:1031A40080C03FF081C040F0500E416E000E426E70
:1031B40084C043F085C044F03EEC0CF03F505226EE
:1031C4004050532250C0F6FF51C0F7FF0800F5509D
:1031D4000009D8A4E5D752C080F053C081F0120092
:1031E40054505510D8A405D054C03DF055C03EF0FD
:1031F40006D0FF0E54243D6EFF0E55203E6E3CC09B
:1032040080F1000E0101816F3AC02FF03BC030F015
:10321400800E316E010E326E3DC033F03EC034F08C
:1032240041EC17F02FC03AF030C03BF01200000E12
:10323400896E000E8A6E000E8B6E000E8C6E000E70
:103244008D6EC00E926EF70E936E800E946E030E0A
:10325400956E000EC26E0F0EC16EC08E000EB56E5E
:10326400B496B10EC06EF292F288F092F088F18CAE
:10327400F090F086F18AF28EF28C1200030E1F1485
:103284001F6E206A0F0E2114216E226A1F04201063
:10329400D8A404D0400E2126000E2222020E1F18AC
:1032A4002010D8A404D0100E2126000E2222030ED2
:1032B4001F182010D8A404D0500E2126000E22225C
:1032C40021508009D4EC1AF01200000E226E000E78
:1032D400216E0CD08C8421501E24D96E22501F20C4
:1032E400DA6EDF50BEEC1AF0214A222A21501E2445
:1032F400D96E22501F20DA6EDF50D8B4120021504C
:103304001E24D96E22501F20DA6E0A0EDE18D8B49D
:103314001200E0D7000E2F1A000E301A000E311AD8
:10332400800E321A2BC01BF02CC01CF02DC01DF0D7
:103334002EC01EF02FC01FF030C020F031C021F08D
:1033440032C022F09BEC0FF01BC02BF01CC02CF001
:103354001DC02DF01EC02EF01200000E151A000E16
:10336400161A000E171A800E181A11C001F012C096
:1033740002F013C003F014C004F015C005F016C029
:1033840006F017C007F018C008F021EC11F001C0D6
:1033940011F002C012F003C013F004C014F01200C4
:1033A400010E216E200E1B181C10D8B414D0F70E79
:1033B4001D6EFF0E1E6E1BC01FF01CC020F01D50A2
:1033C4001F261E502022205004E1050E1F5CD8A0A9
:1033D40002D0000E216E21C01BF01C6A1200000EE8
:1033E4002E6E000E2D6E0BD02CC01FF0206A2AC04A
:1033F40021F02BC022F0F1EC16F02D4A2E2A2D508C
:103404002824D96E2E502920DA6EDF502C6E2C50D1
:10341400D8B41200E9D7D00E1D6EFF0E1E6E1BC06D
:103424001FF01CC020F01D501F261E5020222050CB
:1034340006E10A0E1F5CD8B002D0010E01D0000EC6
:103444001B6E1C6A1200EDEC1AF0000E1D6ED00EFD
:103454001C6EDAEC1AF0000E1D6E070E1C6EDAEC10
:103464001AF0000E1D6E000E1C6EDAEC1AF0E9EC78
:103474001AF012001BC01DF01CC01EF002D01B4A23
:103484001C2A1BC0D9FF1CC0DAFFDF50D8A4F7D711
:103494001D501B5C1B6E1E501C581C6E1200000E2F
:1034A400F2BE010E1B6EF29E8C86140EE82EFED721
:1034B40000D08C96530EE82EFED700F01BB002D03D
:1034C400F29E01D0F28E12001B501D02F3CF1FF0AA
:1034D400F4CF20F01B501E02F35020261C501D0276
:1034E400F35020261FC01BF020C01CF012005C50BB
:1034F4005D18D8A402D0FF0E1200400E5C24D96ED1
:10350400DA6A010EDA22DF501B6E5C283F0B5C6E18
:103514001B5012005C505DC01DF01E6A1D5E000E43
:103524001E5A400E1D26000E1E223F0E1D141B6E39
:103534001C6A12001B6E000E5B24D96EDA6A010E3F
:10354400DA221BC0DFFF5B283F0B5B6E9D881200F5
:103554001C6E8C500F0B8C6E1C38F00B8C108C6E08
:1035640051EC1AF01200C7B4FED7C5CF1BF01F0EE2
:103574001B16D8B41200F7D71D6E1D380F0BAAEC1A
:103584001AF01D50AAEC1AF01200899089948992BD
:1035940089968998899A12001E6E8C841E50BEECFE
:1035A4001AF012001E6E8C941E50BEEC1AF012001B
:1035B400B5EC1AF01CC0C9FF1200F5EC1AF0F1ECDE
:1035C4001AF01200FDEC1AF0F9EC1AF01200B5EC46
:1035D4001AF0C5841200B5EC1AF0C5801200899265
:1035E400899689801200899289968984120089902B
:1035F4008994898212008990899489861200286EA0
:05360400756C6C29004B
:10360A008990899212008994899612008998898AE8
:08361A001200899A8988120050
:020000040020DA
:08000000FFFFFFFFFFFFFFFF00
:020000040030CA
:0E000000FF021F1EFF8381FF0F400FE00F4025
:00000001FF
