:020000040000FA
:040000004AEF00F0D3
:060008006282A1ED0EF082
:100018006280D8CF19F0E8CF1AF0E0CF1BF0D9CF23
:100028001CF0DACF1DF0F29E9DBA9EAA0CD0400EAD
:100038005924D96EDA6A010EDA22AECFDFFF5928C9
:100048003F0B596E9E9A9DB89EA813D057505618CC
:10005800D8B40DD0000E5624D96EDA6A010EDA2211
:10006800DF50AD6E56283F0B566E9E9802D09E9874
:100078009D98F28E1DC0DAFF1CC0D9FF1BC0E0FF9F
:100088001AC0E8FF19C0D8FF629010008FEF11F076
:10100000003132334134353642373839432A3023C0
:101010004400501040000410496E697420636F6DE5
:10102000706C6574650A00256325630A00252E2A05
:031030007300004A
:10103400E1EC11F001EC11F0A00E2B6E860E2C6E7B
:10104400010E2D6E000E2E6E36EC11F0F2EC12F045
:1010540077EC10F0000E236E000E226E000E256E4B
:10106400000E246E30EC12F0180E1F6E100E206E5F
:1010740087EC0FF0070E0001A86F580EA76F590EEA
:10108400E82EFED7A72FFCD7A82FFAD700D0000E42
:101094000101C56F000EC76F000EC66F59EC13F047
:1010A4001E501F10D8B40FD046EC13F00001A76FE8
:1010B400990E0101C625D96E010EC721DA6EA7C0AB
:1010C400DFFFC64BC72B0101C7BF23D0C75103E1C4
:1010D400C605D8A01ED0FF0E0001A76FFF0EA86F93
:1010E400C6C1A9F0C7C1AAF0A751A927A851AA232C
:1010F400990EA925D96E010EAA21DA6E0A0EDE1800
:10110400D8A407D0010E0101C56F000EC76F000EF1
:10111400C66F0101C551D8B472D1000EC56F60D13C
:10112400000E236E000E226E000E256E000E246E3D
:1011340030EC12F0ACEC13F062D1000E236E000E12
:10114400226E000E256E000E246E30EC12F0C6ECFA
:1011540013F055D1000E236E000E226E000E256E84
:10116400000E246E30EC12F0C2EC13F048D1000EE5
:10117400236E000E226E000E256E000E246E30ECDF
:1011840012F094EC13F03BD101019B510001A76FC5
:10119400A86BA851000AD8A432D1A751420AD8B4E6
:1011A400BFD7040AD8B4E3D70A0AD8B4C6D71E0AEC
:1011B400D8B4D0D724D1000E236E000E226E000EB8
:1011C400256E000E246E30EC12F0B1EC13F017D142
:1011D400000E236E000E226E000E256E000E246E8D
:1011E40030EC12F0CEEC13F00AD1000E236E000E98
:1011F400226E000E256E000E246E30EC12F0CAEC46
:1012040013F0FDD001019B510001A76FA86BA851F9
:10121400000AD8A4F4D0A751420AD8B4CCD7040AFF
:10122400D8B4A5D70A0AD8B4D3D71E0AD8B4DDD700
:10123400E6D0000E236E000E226E000E256E000E08
:10124400246E30EC12F0D5EC13F0D9D0000E236EDE
:10125400000E226E000E256E000E246E30EC12F08D
:10126400D2EC13F0CCD001019B510001A76FA86B05
:10127400A851000AD8A4C3D0A751460AD8B477D736
:101284000A0AD8B4D6D71E0AD8B4E0D7B8D0010118
:101294009A510001A76FA86BA851000AD8A4AFD037
:1012A400A751420AD8B4AED7040AD8B46DD7150AE8
:1012B400D8B4D9D7A4D0000E236E000E226E000E2F
:1012C400256E000E246E30EC12F0B20E0001956F04
:1012D400010E966F2D0E976F100E986F000E9A6F79
:1012E400100E996F9B0E9B6F010E9C6FB8EC11F062
:1012F400B20E216E010E226E57EC12F080D0000E59
:10130400236E010E226E000E256E000E246E30EC4C
:1013140012F0B20E0001956F010E966F2D0E976FAD
:10132400100E986F000E9A6F100E996F9B0E9B6FA4
:10133400010E9C6FB8EC11F0DBD7000E236E020E89
:10134400226E000E256E000E246E30EC12F0B20EEA
:101354000001956F010E966F2D0E976F100E986F0A
:10136400000E9A6F100E996F9B0E9B6F010E9C6F6F
:10137400B8EC11F0BDD7000E236E030E226E000EE2
:10138400256E000E246E30EC12F0B20E0001956F43
:10139400010E966F2D0E976F100E986F000E9A6FB8
:1013A400100E996F9B0E9B6F010E9C6FB8EC11F0A1
:1013B4009FD701019A510001A76FA86BA851000A99
:1013C400D8A41DD0A751310AD8B475D7030AD8B40C
:1013D40096D7010AD8B4B1D7070AD8B4CCD70FD05E
:1013E40099510001A76FA86BA851000AD8A407D08F
:1013F400A751440AD8B4DDD7090AD8B448D70001A4
:10140400AC51D8B44BD6000EAC6F81380F0B0F0B18
:101414000101C46F800E0001956F010E966F270EB7
:10142400976F100E986F000E9A6F4B0E996F010E06
:101434000101C425F66EF76A100EF7220800F55074
:1014440000019B6F9C6BB8EC11F0800E1F6E010EB7
:10145400206E87EC0FF022D682C0D9FF83C0DAFF5A
:10146400DECFF6FFDDCFF7FF0800F550250AD8A43C
:1014740092D182C0D9FF83C0DAFFDE2A000EDD22BA
:10148400000E516E000E506E50C054F051C055F015
:101494005268536882C0D9FF83C0DAFFDECFF6FFFB
:1014A400DDCFF7FF0800F5502A0AD8A423D082C064
:1014B400D9FF83C0DAFFDE2A000EDD2284C0D9FF03
:1014C40085C0DAFFDFCF42F0020EDE26DFCF43F025
:1014D400000EDD2242C0D9FF43C0DAFFDECF50F058
:1014E400DDCF51F051AE40D05480506C511ED8B075
:1014F400512A3AD082C0D9FF83C0DAFFDECF25F06B
:10150400DDCF26F06DEC0DF025C050F026C051F073
:1015140007D082C0D9FF83C0DAFFDE2A000EDD22A5
:10152400D00E426EFF0E436E82C0D9FF83C0DAFF35
:10153400DECFF6FFDDCFF7FF0800F550446E456AB5
:101544004250442643504522455006E10A0E445C6D
:10155400D8B002D0010E01D0000E0001896F8A6B51
:1015640089518A11D8A4D5D782C0D9FF83C0DAFFA4
:10157400DECFF6FFDDCFF7FF0800F5502E0AD8A422
:101584006ED0000E536E000E526E82C0D9FF83C01F
:10159400DAFFDE2A000EDD2282C0D9FF83C0DAFF23
:1015A400DECFF6FFDDCFF7FF0800F5502A0AD8A4F6
:1015B4001CD082C0D9FF83C0DAFFDE2A000EDD22F0
:1015C40084C0D9FF85C0DAFFDFCF42F0020EDE26E9
:1015D400DFCF43F0000EDD2242C0D9FF43C0DAFF63
:1015E400DECF52F0DDCF53F03AD082C0D9FF83C0B2
:1015F400DAFFDECF25F0DDCF26F06DEC0DF025C04F
:1016040052F026C053F007D082C0D9FF83C0DAFF5E
:10161400DE2A000EDD22D00E426EFF0E436E82C023
:10162400D9FF83C0DAFFDECFF6FFDDCFF7FF080076
:10163400F550446E456A4250442643504522455075
:1016440006E10A0E445CD8B002D0010E01D0000EAF
:1016540000018B6F8C6B8B518C11D8A4D5D782C0B1
:10166400D9FF83C0DAFFDECFF6FFDDCFF7FF080036
:10167400F550630AD8A427D082C0D9FF83C0DAFF0B
:10168400DE2A000EDD2284C0D9FF85C0DAFFDFCF59
:1016940042F0020EDE26DFCF43F0000EDD2242C010
:1016A400D9FF43C0DAFFDF500001886F80C03DF0EE
:1016B40081C03EF088C03FF009EC12F03DC080F0DC
:1016C4003EC081F0120082C0D9FF83C0DAFFDECFB2
:1016D400F6FFDDCFF7FF0800F550730AD8A42AD02F
:1016E40082C0D9FF83C0DAFFDE2A000EDD2284C067
:1016F400D9FF85C0DAFFDFCF42F0020EDE26DFCF4E
:1017040043F0000EDD2242C0D9FF43C0DAFFDECF32
:1017140086F0DDCF87F080C02BF081C02CF086C02E
:101724002DF087C02EF00DEC0EF02BC080F02CC0F5
:1017340081F0120082C0D9FF83C0DAFFDECFF6FF4A
:10174400DDCFF7FF0800F550250AD8A417D082C0D2
:10175400D9FF83C0DAFFDE2A000EDD22000E236EDD
:10176400250E226E80C024F081C025F0DCEC0FF041
:10177400000E0001816F010E806F120082C0D9FF3C
:1017840083C0DAFFDE2A000EDD22000E0001816F25
:10179400000E806F120082C0D9FF83C0DAFFDECF53
:1017A400F6FFDDCFF7FF0800F550226E236A80C0F4
:1017B40024F081C025F0DCEC0FF082C0D9FF83C097
:1017C400DAFFDE2A000EDD22D3D70450800B0D6E23
:1017D400045004240F6E03BE0F800F50D8B40DD0F4
:1017E4000F28D8A408D0000E016E000E026E000E61
:1017F400036E000E046E038E06D0000E016E000E02
:10180400026E000E036E000E046E0850800B0E6E06
:101814000D500E18D8A40D8C085008240E6E07BE67
:101824000E800E50D8B40DD00E28D8A408D0000EC7
:10183400056E000E066E000E076E000E086E078E13
:1018440006D0000E056E000E066E000E076E000E2A
:10185400086E0F500E5CD8B022D00DAC02D0800EB2
:101864000D1A0FC010F00EC00FF010C00EF001C022
:1018740010F005C001F010C005F002C010F006C061
:1018840002F010C006F003C010F007C003F010C04F
:1018940007F004C010F008C004F010C008F0000EF7
:1018A400106E0F500EC009F00A6A095E000E0A5A43
:1018B4000ABE2CD00A5004E11A0E095CD8A026D026
:1018C4000150021003100410D8B402D0010E01D04C
:1018D400000E106E000E016E000E026E000E036EFE
:1018E400000E046E0EC00FF015D010A005D0D890D5
:1018F40010300109106E02D0D890103201B0108E51
:10190400043404320332023201320F2A0E500F5CC7
:10191400D8A0EBD70DBC28D00F50D8A409D0000E06
:10192400016E000E026E000E036E000E046E1200B5
:1019340005500126065002220750032208500422B3
:1019440004A071D010A005D0D89010300109106EF9
:1019540002D0D890103201B0108E04340432033215
:10196400023201320F2A5FD00550015C0650025842
:10197400075003580450800A096E0850800A095819
:10198400D8B025D00150055C096E025006580A6E85
:10199400035007580B6E045008580C6EFF0E0924B0
:1019A400016EFF0E0A20026EFF0E0B20036EFF0E67
:1019B4000C20046E800E0D1A106C1050D8A40FD099
:1019C400010E0126000E02220322042208D0055033
:1019D400015E0650025A0750035A0850045A015037
:1019E400021003100410D8A41CD01050D8A419D08D
:1019F400000E016E000E026E000E036E000E046EE9
:101A04001200D890013602360336043610BE018027
:101A140010A002D0D88001D0D89010360F50D8A48E
:101A24000F0603AEEED7000E0E6E10AE0BD010C034
:101A340009F07F0E0916D8B403D0010E0E6E02D041
:101A440001B0FBD70E50D8B420D0010E0126000EF1
:101A540002220322042204A018D001C009F002C00B
:101A64000AF003C00BF004C00CF00C340C320B323F
:101A74000A32093209C001F00AC002F00BC003F0B7
:101A84000CC004F00F28D8A40F2A0F28D8B403D010
:101A94000F50D8A40DD0000E016E000E026E000E81
:101AA400036E000E046E0F50D8A402D0000E0D6E0B
:101AB4000FA002D0038E01D0039ED8900F30046E85
:101AC4000DBE048E01C001F002C002F003C003F099
:101AD40004C004F01200000E336E000E326E000ECD
:101AE4002C6E000E2B6E02D0254A262A010E316E72
:101AF40025C0F6FF26C0F7FF0800F550200AD8B429
:101B040018D0F70E276EFF0E286E25C0F6FF26C0EC
:101B1400F7FF0800F550296E2A6A27502926285015
:101B24002A222A5004E1050E295CD8A002D0000E16
:101B3400316E31C02DF02E6A2D502E10D8B408D03D
:101B4400D3D7000E2C6E010E2B6E254A262A2ED0DA
:101B540025C0F6FF26C0F7FF0800F550276E286A57
:101B64002850000AD8A422D027502B0AD8B4EDD785
:101B7400060AD8B4E6D71AD032C01EF033C01FF01C
:101B8400000E216E0A0E206E33EC13F025C0F6FF12
:101B940026C0F7FF0800F5501E5E000E1F5A300ED7
:101BA4001E24326E000E1F20336ECFD7D00E276E48
:101BB400FF0E286E25C0F6FF26C0F7FF0800F5507B
:101BC400296E2A6A2750292628502A222A5006E1FB
:101BD4000A0E295CD8B002D0010E01D0000E2F6E7F
:101BE400306A2F503010D8A4C7D72B502C10D8A44B
:101BF4000DD032C027F033C028F0271E281E274AF4
:101C0400282A27C025F028C026F0120032C025F06B
:101C140033C026F0120020EE5AF010EE30F0060E1B
:101C2400DBCFE3FFE806FCE22DC03BF02EC03CF026
:101C34003B503C10D8A404D0300E3B6E000E3C6EDA
:101C44003BC01EF03CC01FF009EC13F01EC03FF077
:101C54001FC040F052C03DF053C03EF03EBE0ED017
:101C64003F503D5C3E50800A2F6E4050800A2F58F2
:101C7400D8B004D03DC03FF03EC040F03FC03DF07E
:101C840040C03EF050C039F051C03AF054A00DD0DD
:101C940016D0000E236E200E226E2BC024F02CC012
:101CA40025F0DCEC0FF03F4A402A39503F5C4050AD
:101CB400800A2F6E3A50800A2F58D8A0EAD7000E17
:101CC400386E000E376E13D03BC0D9FF3CC0DAFF2C
:101CD400DF502F6E2F50226E236A2BC024F02CC0AD
:101CE40025F0DCEC0FF03B4A3C2A374A382A3D50B9
:101CF400375C3850800A2F6E3E50800A2F58D8A087
:101D0400E3D754B00DD016D0000E236E200E226EF1
:101D14002BC024F02CC025F0DCEC0FF03F4A402A05
:101D240039503F5C4050800A2F6E3A50800A2F5839
:101D3400D8A0EAD73FC02BF040C02CF01200060018
:101D4400F2B8F2A238D083A01BD04AC001F04BC035
:101D540002F04CC003F04DC004F0000E056E000EFE
:101D6400066E800E076E3F0E086EE7EC0BF001C0A6
:101D74004AF002C04BF003C04CF004C04DF01AD03E
:101D84004AC011F04BC012F04CC013F04DC014F017
:101D9400000E156E000E166E800E176E3F0E186E36
:101DA4007CEC12F011C04AF012C04BF013C04CF09E
:101DB40014C04DF0F292F0B8F0A238D083A21BD038
:101DC40046C001F047C002F048C003F049C004F027
:101DD400000E056E000E066E800E076E3F0E086E36
:101DE400E7EC0BF001C046F002C047F003C048F036
:101DF40004C049F01AD046C011F047C012F048C0E0
:101E040013F049C014F0000E156E000E166E800E0D
:101E1400176E3F0E186E7CEC12F011C046F012C023
:101E240047F013C048F014C049F0F092F0B0F0A6A7
:101E340004D0010E0001AC6FF09062921100000E0C
:101E4400276E25AE0AD0251E241E231E226C000EEA
:101E5400232224222522010E276E21AE0AD0211E20
:101E6400201E1F1E1E6C000E1F2220222122010E86
:101E7400271A000E286E000E296E000E2A6E000E20
:101E84002B6E2250231024102510D8B42AD0010E12
:101E9400266E06D0D8902236233624362536262AB6
:101EA40025AEF8D7D890283629362A362B36225034
:101EB4001E5C23501F582450205825502158D8A068
:101EC40009D022501E5E23501F5A2450205A2550F8
:101ED400215A2880D8902532243223322232262EC9
:101EE400E1D72750D8B408D02B1E2A1E291E286CEF
:101EF400000E29222A222B2228C01EF029C01FF0FE
:101F04002AC020F02BC021F01200000E246E000E17
:101F1400236E35D023501F24216E24502020226E9E
:101F240021C0F6FF22C0F7FF000EF86E0F0EF76413
:101F340003D00800F55005D0F6CFE9FFF7CFEAFF4C
:101F4400EF500009D8B4120023501F24216E2450EE
:101F54002020226E21C0F6FF22C0F7FF000EF86E8B
:101F64000F0EF76403D00800F55005D0F6CFE9FF53
:101F7400F7CFEAFFEF5069EC13F0234A242A2350E9
:101F84001F24216E24502020226E21C0F6FF22C07F
:101F9400F7FF000EF86E0F0EF76403D00800F5503B
:101FA40005D0F6CFE9FFF7CFEAFFEF500009D8B428
:101FB4001200B0D724502510D8B404D024502510D2
:101FC400D8A404D022509BEC13F0120020EE04F0AD
:101FD4002450D9262550DA22DE50DE10D8B416D08B
:101FE40020EE04F02450D9262550DA2210EE02F017
:101FF4002450E1262550E222DE50E65CE650800AB9
:102004002A6EDE50800A2A58D8B0120020EE02F060
:102014002450D9262550DA22DECF26F0DDCF27F052
:1020240024C0D9FF25C0DAFFDECF28F0DDCF29F0A8
:1020340026502824D96E27502920DA6E22C0DFFFCB
:1020440020EE02F02450D9262550DA22DE2A000E92
:10205400DD22120054A00AD034C02BF035C02CF07D
:1020640032C02DF033C02EF0BEEC12F037BE05D0D6
:1020740036C03BF037C03CF004D0000E3C6E000E7E
:102084003B6E000E3A6E000E396E0CD0000E236EBD
:10209400200E226E32C024F033C025F0DCEC0FF0A9
:1020A400394A3A2A3B50395C3A50800A386E3C50DF
:1020B400800A3858D8A0EAD754B00AD034C02BF0DC
:1020C40035C02CF032C02DF033C02EF0BEEC12F02F
:1020D40034C01EF035C01FF009EC13F03B501E2431
:1020E400326E3C501F20336E1200000E596E000EEB
:1020F400586E000E576E000E566E000E306E4B0E6C
:10210400316E000E326E000E336E800E1E6E960E11
:102114001F6E980E206E000E216E30C02CF031C060
:102124002DF032C02EF033C02FF0060ED8902C368E
:102134002D362E362F36E82EF9D72CC022F02DC09E
:1021440023F02EC024F02FC025F021EC0FF01E0444
:10215400AF6E949C948EAC9CAC98AC8A110E2C6E91
:102164003A0EE82EFED72C2EFCD700D0AB8EAB9CBB
:10217400AB889D8A9D889F989F9A1200000E266EB8
:10218400000E276E000E286E000E296E22502310BA
:1021940024102510D8B42AD0010E2A6E06D0D89067
:1021A40022362336243625362A2A25AEF8D7D89067
:1021B400263627362836293622501E5C23501F58CF
:1021C4002450205825502158D8A009D022501E5EF2
:1021D40023501F5A2450205A2550215A2680D89023
:1021E40025322432233222322A2EE1D726C01EF091
:1021F40027C01FF028C020F029C021F01200310EA2
:10220400226EB20EE82EFED7222EFCD700D08C947C
:10221400030E77EC13F0110E226E3A0EE82EFED761
:10222400222EFCD700D0030E77EC13F07D0EE82E9F
:10223400FED7320E8BEC13F0280E8BEC13F0080E45
:102244008BEC13F0010E8BEC13F0110E226E3A0E90
:10225400E82EFED7222EFCD700D0060E8BEC13F00E
:102264000F0EA1EC13F01200C69A94869488800E87
:102274001E6E960E1F6E980E206E000E216E2BC0E1
:102284002FF02CC030F02DC031F02EC032F0020EF1
:10229400D8902F36303631363236E82EF9D72FC063
:1022A40022F030C023F031C024F032C025F0C0EC5D
:1022B40010F01E04C86E800EC76E280EC66E000E87
:1022C400C56E12008FC093F090C094F0000E4F6E54
:1022D400000E4E6E14D08DC080F08EC081F0930E2F
:1022E4000001826F000E836F91C084F092C085F06C
:1022F4002EEC0AF0000180514E2681514F2293C0EA
:10230400F6FF94C0F7FF0800F5500009D8A4E3D7FE
:102314004EC08DF04FC08EF012006C0EF66E270E7C
:10232400F76E000EF86E00EE5AF010EE08F0090099
:10233400F5CFEEFFE550E150FAE101EE00F0800E3A
:10234400EE6AE806FDE100EEACF0210EEE6AE80666
:10235400FDE100EE46F0140EEE6AE806FDE162903F
:102364006292000EF86E00011AEF08F0990E000157
:102374009F6F000EA06F95C0A1F096C0A2F0000E52
:10238400A46F000EA36F000EA66F000EA56FA10E22
:102394008D6F000E8E6F97C08FF098C090F09F0ED7
:1023A400916F000E926F64EC11F00001A35195251A
:1023B400D96EA4519621DA6E000EDF6E1200000E63
:1023C400896E000E8A6E000E8B6E000E8C6E000EEF
:1023D4008D6EC00E926EF70E936E800E946E030E89
:1023E400956E000EC26E0F0EC16EC08E000EB56EDD
:1023F400B496B10EC06EF292F288F092F088F18C2D
:10240400F090F086F18AF28ED08EF28C1200505049
:102414005110D8A405D050C040F051C041F006D0AE
:10242400FF0E5024406EFF0E5120416E3FC0ADF0B0
:10243400000E0001AE6F3DC032F03EC033F0AD0E71
:10244400346E000E356E40C036F041C037F02CECCF
:1024540010F032C03DF033C03EF01200030E2214DF
:10246400226E236A0F0E2414246E256A220423107C
:10247400D8A404D0400E2426000E2522020E2218D1
:102484002310D8A404D0100E2426000E2522030EF7
:1024940022182310D8A404D0500E2426000E25227E
:1024A40024508009A1EC13F01200000E256E000EDA
:1024B400246E0CD08C8424502124D96E25502220E3
:1024C400DA6EDF508BEC13F0244A252A24502124A1
:1024D400D96E25502220DA6EDF50D8B41200245071
:1024E4002124D96E25502220DA6E0A0EDE18D8B4C3
:1024F4001200E0D7000E151A000E161A000E171A55
:10250400800E181A11C001F012C002F013C003F0BB
:1025140014C004F015C005F016C006F017C007F08B
:1025240018C008F0E7EC0BF001C011F002C012F083
:1025340003C013F004C014F01200010E246E200E28
:102544001E181F10D8B414D0F70E206EFF0E216E83
:102554001EC022F01FC023F0205022262150232227
:10256400235004E1050E225CD8A002D0000E246E94
:1025740024C01EF01F6A1200000E316E000E306E71
:102584000BD02FC022F0236A2DC024F02EC025F0DA
:10259400DCEC0FF0304A312A30502B24D96E315004
:1025A4002C20DA6EDF502F6E2F50D8B41200E9D7EA
:1025B400D00E206EFF0E216E1EC022F01FC023F02D
:1025C4002050222621502322235006E10A0E225CA9
:1025D400D8B002D0010E01D0000E1E6E1F6A120088
:1025E400BEEC13F0000E206ED00E1F6EA7EC13F09D
:1025F400000E206E070E1F6EA7EC13F0000E206E67
:10260400000E1F6EA7EC13F0BAEC13F012001EC0FC
:1026140020F01FC021F002D01E4A1F2A1EC0D9FF7D
:102624001FC0DAFFDF50D8A4F7D720501E5C1E6EFF
:1026340021501F581F6E1200000EF2BE010E1E6EB6
:10264400F29E8C86140EE82EFED700D08C96530E84
:10265400E82EFED700F01EB002D0F29E01D0F28E1A
:1026640012001E502002F3CF22F0F4CF23F01E50AC
:102674002102F35023261F502002F350232622C0A8
:102684001EF023C01FF0120058505918D8A402D0CD
:10269400FF0E1200400E5824D96EDA6A010EDA22B7
:1026A400DF501E6E58283F0B586E1E5012005850B3
:1026B40059C020F0216A205E000E215A400E2026C7
:1026C400000E21223F0E20141E6E1F6A12001E6E81
:1026D400000E5724D96EDA6A010EDA221EC0DFFF1B
:1026E40057283F0B576E9D8812001F6E8C500F0B9E
:1026F4008C6E1F38F00B8C108C6E1EEC13F01200D5
:10270400C7B4FED7C5CF1EF01F0E1E16D8B41200D4
:10271400F7D7206E20380F0B77EC13F0205077ECAE
:1027240013F0120089908994899289968998899ADC
:102734001200216E8C8421508BEC13F01200216E58
:102744008C9421508BEC13F0120082EC13F01FC018
:10275400C9FF1200C6EC13F0C2EC13F01200CEEC69
:1027640013F0CAEC13F01200286E756C6C2900018A
:1027740082EC13F0C584120082EC13F0C5801200C1
:102784008992899689801200899289968984120097
:10279400899089948982120089908994898612008B
:0C27A4008998898A1200899A898812009D
:020000040020DA
:08000000FFFFFFFFFFFFFFFF00
:020000040030CA
:0E000000FF021F1EFF8381FF0F400FE00F4025
:00000001FF
