:020000040000FA
:040000004AEF00F0D3
:06000800728250ED11F0C0
:100018007280D8CF01F0E8CF02F0E0CF03F0D9CF5B
:1000280004F0DACF05F0F29E9DBA9EAA0CD0400EDD
:100038006924D96EDA6A010EDA22AECFDFFF6928A9
:100048003F0B696E9E9A9DB89EA813D0675066189C
:10005800D8B40DD0000E6624D96EDA6A010EDA2201
:10006800DF50AD6E66283F0B666E9E9802D09E9854
:100078009D98F28E05C0DAFF04C0D9FF03C0E0FFE7
:1000880002C0E8FF01C0D8FF7290100044EF10F0E2
:10100000003132334134353642373839432A3023C0
:1010100044005010400004104D6F766520526967FF
:10102000687420467764202020004D6F766520523A
:101030006967687420426B776420200053746F7076
:1010400020467764206D6F76652020200053746FF2
:101050007020426B7764206D6F76652020004D6FA5
:101060007665204C2B5220467764202020004D6F5F
:101070007665204C656674204677642020004D6FAD
:101080007665204C2B5220426B77642020004D6FF8
:101090007665204C65667420426B776420004D694C
:1010A00064206D6F746F72206C65667420004D69EA
:1010B00064206D6F746F7220726967687400496E86
:1010C000697420636F6D706C6574650A004D6964A6
:1010D000206D6F746F722073746F700025632563C9
:1010E0000A00252E2A7300000BEC11F0E1EC0FF042
:1010F000A00E136E860E146E010E156E000E166E87
:1011000016EC10F0A2EC11F057EC0FF0000E0B6E85
:10111000000E0A6E000E0D6E000E0C6EE4EC10F068
:10112000BE0E076E100E086E67EC0EF0070E526EC4
:10113000580E516E5A0EE82EFED7512EFCD7522E65
:10114000FAD7000E0001C56F000EC76F000EC66F04
:1011500009EC12F006500710D8B40ED0F6EC11F0DE
:10116000516E990E0001C625D96E000EC721DA6EA8
:1011700051C0DFFFC64BC72B0001C7BF21D0C751ED
:1011800003E1C605D8A01CD0FF0E516EFF0E526EB3
:10119000C6C053F0C7C054F0515053265250542289
:1011A000990E5324D96E000E5420DA6E0A0EDE1802
:1011B000D8A406D0010EC56F000EC76F000EC66F13
:1011C000C551D8B4B7D1000EC56FA6D1000E0B6EB5
:1011D000000E0A6E000E0D6E000E0C6EE4EC10F0A8
:1011E0005E0E096E100E0A6E11EC0EF04FEC12F04E
:1011F000A1D1000E0B6E000E0A6E000E0D6E000ED9
:101200000C6EE4EC10F06E0E096E100E0A6E11EC0E
:101210000EF06EEC12F08ED1000E0B6E000E0A6E08
:10122000000E0D6E000E0C6EE4EC10F0180E096E40
:10123000100E0A6E11EC0EF06AEC12F07BD1000E6B
:101240000B6E000E0A6E000E0D6E000E0C6EE4ECBE
:1012500010F03C0E096E100E0A6E11EC0EF059ECF7
:1012600012F068D19B51516E526A5250000AD8A4B4
:1012700061D15150420AD8B4A9D7040AD8B4DFD7F3
:101280000A0AD8B4B6D71E0AD8B4C6D753D1000EAE
:101290000B6E000E0A6E000E0D6E000E0C6EE4EC6E
:1012A00010F07E0E096E100E0A6E11EC0EF054EC6A
:1012B00012F040D1000E0B6E000E0A6E000E0D6E85
:1012C000000E0C6EE4EC10F08E0E096E100E0A6E1D
:1012D00011EC0EF076EC12F02DD1000E0B6E000E1C
:1012E0000A6E000E0D6E000E0C6EE4EC10F02A0E6D
:1012F000096E100E0A6E11EC0EF072EC12F01AD19B
:10130000000E0B6E000E0A6E000E0D6E000E0C6EBF
:10131000E4EC10F04D0E096E100E0A6E11EC0EF09A
:101320009ED79B51516E526A5250000AD8A402D1E6
:101330005150420AD8B4ABD7040AD8B4E1D70A0A4C
:10134000D8B4B8D71E0AD8B4C8D7F4D0000E0B6EE4
:10135000000E0A6E000E0D6E000E0C6EE4EC10F026
:101360009E0E096E100E0A6E11EC0EF052D7000E92
:101370000B6E000E0A6E000E0D6E000E0C6EE4EC8D
:1013800010F0AE0E096E100E0A6E11EC0EF041D781
:10139000000E0B6E000E0A6E000E0D6E000E0C6E2F
:1013A000E4EC10F0CD0E096E100E0A6E11EC0EF08A
:1013B00056D79B51516E526A5250000AD8A4BAD0E7
:1013C0005150460AD8B4E4D70A0AD8B4BFD71E0A87
:1013D000D8B4CDD7AFD09A51516E526A5250000A4C
:1013E000D8A4A8D05150420AD8B49BD7040AD8B484
:1013F00039D7150AD8B4DDD79DD0000E0B6E000E7C
:101400000A6E000E0D6E000E0C6EE4EC10F0B20EC3
:101410003F6E000E406EE20E416E100E426E000EE8
:10142000446E100E436E9B0E456E000E466E96EC9B
:1014300010F0B20E096E000E0A6E11EC0EF07AD0AA
:10144000000E0B6E010E0A6E000E0D6E000E0C6E7D
:10145000E4EC10F0B20E3F6E000E406EE20E416EF4
:10146000100E426E000E446E100E436E9B0E456EC3
:10147000000E466E96EC10F0DCD7000E0B6E020EDE
:101480000A6E000E0D6E000E0C6EE4EC10F0B20E43
:101490003F6E000E406EE20E416E100E426E000E68
:1014A000446E100E436E9B0E456E000E466E96EC1B
:1014B00010F0BFD7000E0B6E030E0A6E000E0D6EFD
:1014C000000E0C6EE4EC10F0B20E3F6E000E406E9B
:1014D000E20E416E100E426E000E446E100E436E10
:1014E0009B0E456E000E466E96EC10F0A2D79A51F8
:1014F000516E526A5250000AD8A41CD05150310A81
:10150000D8B47BD7030AD8B49BD7010AD8B4B5D7CF
:10151000070AD8B4CFD70ED09951516E526A5250A3
:10152000000AD8A407D05150440AD8B4E0D7090A19
:10153000D8B451D70001C851D8B40AD6000EC86F2C
:1015400081380F0B0F0BC46F800E3F6E000E406E84
:10155000DC0E416E100E426E000E446E4B0E436E5A
:10156000010EC425F66EF76A100EF7220800F5503A
:10157000456E466A96EC10F0800E076E000E086EFF
:1015800067EC0EF0E5D528C0D9FF29C0DAFFDECF21
:10159000F6FFDDCFF7FF0800F550250AD8A48DD15E
:1015A00028C0D9FF29C0DAFFDE2A000EDD22000E96
:1015B000616E000E606E60C064F061C065F06268CC
:1015C000636828C0D9FF29C0DAFFDECFF6FFDDCF80
:1015D000F7FF0800F5502A0AD8A423D028C0D9FF65
:1015E00029C0DAFFDE2A000EDD222AC0D9FF2BC077
:1015F000DAFFDFCF2CF0020EDE26DFCF2DF0000E5B
:10160000DD222CC0D9FF2DC0DAFFDECF60F0DDCFA8
:1016100061F061AE3FD06480606C611ED8B0612A19
:1016200039D028C0D9FF29C0DAFFDECF0DF0DDCFD9
:101630000EF077EC0CF00DC060F00EC061F007D03A
:1016400028C0D9FF29C0DAFFDE2A000EDD22D00E25
:101650002C6EFF0E2D6E28C0D9FF29C0DAFFDECF19
:10166000F6FFDDCFF7FF0800F5502E6E2F6A2C50E5
:101670002E262D502F222F5006E10A0E2E5CD8B0B8
:1016800002D0010E01D0000E326E336A3250331098
:10169000D8A4D6D728C0D9FF29C0DAFFDECFF6FFFD
:1016A000DDCFF7FF0800F5502E0AD8A46DD0000E4C
:1016B000636E000E626E28C0D9FF29C0DAFFDE2AF1
:1016C000000EDD2228C0D9FF29C0DAFFDECFF6FFE9
:1016D000DDCFF7FF0800F5502A0AD8A41CD028C097
:1016E000D9FF29C0DAFFDE2A000EDD222AC0D9FF89
:1016F0002BC0DAFFDFCF2CF0020EDE26DFCF2DF07D
:10170000000EDD222CC0D9FF2DC0DAFFDECF62F043
:10171000DDCF63F039D028C0D9FF29C0DAFFDECF92
:101720000DF0DDCF0EF077EC0CF00DC062F00EC0C6
:1017300063F007D028C0D9FF29C0DAFFDE2A000EE7
:10174000DD22D00E2C6EFF0E2D6E28C0D9FF29C0D1
:10175000DAFFDECFF6FFDDCFF7FF0800F5502E6E83
:101760002F6A2C502E262D502F222F5006E10A0EC4
:101770002E5CD8B002D0010E01D0000E346E356A56
:1017800034503510D8A4D6D728C0D9FF29C0DAFFE5
:10179000DECFF6FFDDCFF7FF0800F550630AD8A4CF
:1017A00026D028C0D9FF29C0DAFFDE2A000EDD22AC
:1017B0002AC0D9FF2BC0DAFFDFCF2CF0020EDE26C5
:1017C000DFCF2DF0000EDD222CC0D9FF2DC0DAFFB7
:1017D000DF50366E26C021F027C022F036C023F03D
:1017E000BDEC10F021C026F022C027F0120028C066
:1017F000D9FF29C0DAFFDECFF6FFDDCFF7FF080003
:10180000F550730AD8A42AD028C0D9FF29C0DAFF1E
:10181000DE2A000EDD222AC0D9FF2BC0DAFFDFCF7F
:101820002CF0020EDE26DFCF2DF0000EDD222CC0C4
:10183000D9FF2DC0DAFFDECF30F0DDCF31F026C08A
:101840000FF027C010F030C011F031C012F017ECCB
:101850000DF00FC026F010C027F0120028C0D9FFED
:1018600029C0DAFFDECFF6FFDDCFF7FF0800F55025
:10187000250AD8A416D028C0D9FF29C0DAFFDE2A4D
:10188000000EDD22000E076E250E066E26C008F043
:1018900027C009F0BCEC0EF0000E276E010E266E7C
:1018A000120028C0D9FF29C0DAFFDE2A000EDD228F
:1018B000000E276E000E266E120028C0D9FF29C028
:1018C000DAFFDECFF6FFDDCFF7FF0800F550066E3A
:1018D000076A26C008F027C009F0BCEC0EF028C04B
:1018E000D9FF29C0DAFFDE2A000EDD22D5D7000E8F
:1018F0001B6E000E1A6E000E146E000E136E02D0D8
:101900000D4A0E2A010E196E0DC0F6FF0EC0F7FF2C
:101910000800F550200AD8B418D0F70E0F6EFF0E4D
:10192000106E0DC0F6FF0EC0F7FF0800F550116EE7
:10193000126A0F50112610501222125004E1050EA7
:10194000115CD8A002D0000E196E19C015F0166AED
:1019500015501610D8B408D0D3D7000E146E010E4F
:10196000136E0D4A0E2A2ED00DC0F6FF0EC0F7FFE3
:101970000800F5500F6E106A1050000AD8A422D04B
:101980000F502B0AD8B4EDD7060AD8B4E6D71AD030
:101990001AC006F01BC007F0000E096E0A0E086E92
:1019A000E3EC11F00DC0F6FF0EC0F7FF0800F55094
:1019B000065E000E075A300E06241A6E000E07202F
:1019C0001B6ECFD7D00E0F6EFF0E106E0DC0F6FF40
:1019D0000EC0F7FF0800F550116E126A0F50112665
:1019E00010501222125006E10A0E115CD8B002D03B
:1019F000010E01D0000E176E186A17501810D8A4E7
:101A0000C7D713501410D8A40DD01AC00FF01BC0A4
:101A100010F00F1E101E0F4A102A0FC00DF010C03C
:101A20000EF012001AC00DF01BC00EF0120020EED6
:101A30006AF010EE14F0060EDBCFE3FFE806FCE2DE
:101A400011C01FF012C020F01F502010D8A404D0E5
:101A5000140E1F6E000E206E1FC006F020C007F08F
:101A6000B9EC11F006C023F007C024F062C021F0E9
:101A700063C022F022BE0ED02350215C2250800A87
:101A8000136E2450800A1358D8B004D021C023F01C
:101A900022C024F023C021F024C022F060C01DF039
:101AA00061C01EF064A00DD016D0000E076E200E8F
:101AB000066E0FC008F010C009F0BCEC0EF0234A0F
:101AC000242A1D50235C2450800A136E1E50800A65
:101AD0001358D8A0EAD7000E1C6E000E1B6E13D050
:101AE0001FC0D9FF20C0DAFFDF50136E1350066EFF
:101AF000076A0FC008F010C009F0BCEC0EF01F4AD6
:101B0000202A1B4A1C2A21501B5C1C50800A136E81
:101B10002250800A1358D8A0E3D764B00DD016D055
:101B2000000E076E200E066E0FC008F010C009F000
:101B3000BCEC0EF0234A242A1D50235C2450800A5A
:101B4000136E1E50800A1358D8A0EAD723C00FF096
:101B500024C010F01200000E0F6E0DAE0AD00D1E44
:101B60000C1E0B1E0A6C000E0B220C220D22010E05
:101B70000F6E09AE0AD0091E081E071E066C000E65
:101B8000072208220922010E0F1A000E106E000E05
:101B9000116E000E126E000E136E0A500B100C1018
:101BA0000D10D8B42AD0010E0E6E06D0D8900A3689
:101BB0000B360C360D360E2A0DAEF8D7D8901036EF
:101BC0001136123613360A50065C0B5007580C506B
:101BD00008580D500958D8A009D00A50065E0B507D
:101BE000075A0C50085A0D50095A1080D8900D32DF
:101BF0000C320B320A320E2EE1D70F50D8B408D077
:101C0000131E121E111E106C000E1122122213221E
:101C100010C006F011C007F012C008F013C009F0A0
:101C20001200000E0E6E000E0D6E1CD08C840D5036
:101C300009240B6E0E500A200C6E0BC0F6FF0CC070
:101C4000F7FF000EF86E0F0EF76403D00800F55092
:101C500005D0F6CFE1FFF7CFE2FFE7503BEC12F003
:101C60000D4A0E2A0D5009240B6E0E500A200C6EE0
:101C70000BC0F6FF0CC0F7FF000EF86E0F0EF764F6
:101C800003D00800F55005D0F6CFE1FFF7CFE2FF13
:101C9000E7500009D8B412000D5009240B6E0E5005
:101CA0000A200C6E0BC0F6FF0CC0F7FF000EF86E9A
:101CB0000F0EF76403D00800F55005D0F6CFE1FF12
:101CC000F7CFE2FFE7500A0AD8B41200AFD7000EF0
:101CD0000C6E000E0B6E35D00B500724096E0C50A5
:101CE00008200A6E09C0F6FF0AC0F7FF000EF86E62
:101CF0000F0EF76403D00800F55005D0F6CFE1FFD2
:101D0000F7CFE2FFE7500009D8B412000B500724C8
:101D1000096E0C5008200A6E09C0F6FF0AC0F7FFD2
:101D2000000EF86E0F0EF76403D00800F55005D0D2
:101D3000F6CFE1FFF7CFE2FFE75019EC12F00B4AC4
:101D40000C2A0B500724096E0C5008200A6E09C09B
:101D5000F6FF0AC0F7FF000EF86E0F0EF76403D00F
:101D60000800F55005D0F6CFE1FFF7CFE2FFE750CE
:101D70000009D8B41200B0D708500910D8B404D064
:101D800008500910D8A404D006507AEC12F01200C2
:101D900020EE04F00850D9260950DA22DE50DE1079
:101DA000D8B416D020EE04F00850D9260950DA2213
:101DB00010EE02F00850E1260950E222DE50E65C07
:101DC000E650800A0E6EDE50800A0E58D8B012001F
:101DD00020EE02F00850D9260950DA22DECF0AF0B0
:101DE000DDCF0BF008C0D9FF09C0DAFFDECF0CF061
:101DF000DDCF0DF00A500C24D96E0B500D20DA6E99
:101E000006C0DFFF20EE02F00850D9260950DA2282
:101E1000DE2A000EDD22120064A00AD018C00FF0E6
:101E200019C010F016C011F017C012F06EEC11F0CE
:101E30001BBE05D01AC01FF01BC020F004D0000E3E
:101E4000206E000E1F6E000E1E6E000E1D6E0CD05A
:101E5000000E076E200E066E16C008F017C009F0BF
:101E6000BCEC0EF01D4A1E2A1F501D5C1E50800A3D
:101E70001C6E2050800A1C58D8A0EAD764B00AD043
:101E800018C00FF019C010F016C011F017C012F0F2
:101E90006EEC11F018C006F019C007F0B9EC11F0A3
:101EA0001F500624166E20500720176E1200000ED9
:101EB000696E000E686E000E676E000E666E000E94
:101EC000186E4B0E196E000E1A6E000E1B6E800EF1
:101ED000066E960E076E980E086E000E096E18C0FC
:101EE00014F019C015F01AC016F01BC017F0060E3A
:101EF000D8901436153616361736E82EF9D714C092
:101F00000AF015C00BF016C00CF017C00DF0ABECCA
:101F10000DF00604AF6E949C948EAC9CAC98AC8A89
:101F2000110E146E3A0EE82EFED7142EFCD700D0F8
:101F3000AB8EAB9CAB889D8A9D889F989F9A120020
:101F4000000E0E6E000E0F6E000E106E000E116E63
:101F50000A500B100C100D10D8B42AD0010E126EBE
:101F600006D0D8900A360B360C360D36122A0DAE36
:101F7000F8D7D8900E360F36103611360A50065C58
:101F80000B5007580C5008580D500958D8A009D0CC
:101F90000A50065E0B50075A0C50085A0D50095A49
:101FA0000E80D8900D320C320B320A32122EE1D74D
:101FB0000EC006F00FC007F010C008F011C009F005
:101FC0001200310E0A6EB20EE82EFED70A2EFCD792
:101FD00000D08C94030E27EC12F0110E0A6E3A0E0C
:101FE000E82EFED70A2EFCD700D0030E27EC12F005
:101FF0007D0EE82EFED7320E3BEC12F0280E3BECA5
:1020000012F0080E3BEC12F0010E3BEC12F0110E38
:102010000A6E3A0EE82EFED70A2EFCD700D0060E26
:102020003BEC12F00F0E44EC12F01200C69A9486AC
:102030009488800E066E960E076E980E086E000E3F
:10204000096E13C017F014C018F015C019F016C0AF
:102050001AF0020ED8901736183619361A36E82EAE
:10206000F9D717C00AF018C00BF019C00CF01AC04D
:102070000DF0A0EC0FF00604C86E800EC76E280E9F
:10208000C66E000EC56E1200BC0EF66E240EF76E04
:10209000000EF86E00EE6AF010EE08F00900F5CFC1
:1020A000EEFFE550E150FAE101EE00F0800EEE6A3D
:1020B000E806FDE100EEC8F0210EEE6AE806FDE15B
:1020C00000EE56F0140EEE6AE806FDE17290729290
:1020D000000EF86E000174EF08F039C03DF03AC010
:1020E0003EF0000E5F6E000E5E6E12D037C026F01E
:1020F00038C027F03D0E286E000E296E3BC02AF036
:102100003CC02BF0C3EC0AF026505E2627505F221D
:102110003DC0F6FF3EC0F7FF0800F5500009D8A407
:10212000E5D75EC037F05FC038F01200430E496E4D
:10213000000E4A6E3FC04BF040C04CF0000E4E6E99
:10214000000E4D6E000E506E000E4F6E4B0E376E31
:10215000000E386E41C039F042C03AF0490E3B6E75
:10216000000E3C6E6DEC10F04D503F24D96E4E5079
:102170004020DA6E000EDF6E120060506110D8A4AD
:1021800005D060C024F061C025F006D0FF0E6024A9
:10219000246EFF0E6120256E23C0C9F0000E0001E1
:1021A000CA6F21C016F022C017F0C90E186E000EBB
:1021B000196E24C01AF025C01BF00CEC0FF016C0ED
:1021C00021F017C022F01200030E0A140A6E0B6AE7
:1021D0000F0E0C140C6E0D6A0A040B10D8A404D058
:1021E000400E0C26000E0D22020E0A180B10D8A469
:1021F00004D0100E0C26000E0D22030E0A180B1030
:10220000D8A404D0500E0C26000E0D220C508009CC
:1022100044EC12F01200000E896E000E8A6E000E61
:102220008B6E000E8C6E000E8D6EC00E926EF70ED1
:10223000936E800E946E030E956E000EC26E0F0E9E
:10224000C16EC08E000EB56EB496B10EC06EF29225
:10225000F288F18CF090F086F18AF28ED08EF28CBA
:102260001200010E0C6E200E06180710D8B414D000
:10227000F70E086EFF0E096E06C00AF007C00BF0DD
:1022800008500A2609500B220B5004E1050E0A5C87
:10229000D8A002D0000E0C6E0CC006F0076A120027
:1022A0000600F2B8F2A211D083A006D0010E5A2681
:1022B000000E5B225C2207D0FF0E5A26FF0E5B2227
:1022C000FF0E5C22FF0E5D22F292F0B0F0A604D069
:1022D000010E0001C86FF09072921100000E156E91
:1022E000000E146E0BD013C006F0076A11C008F080
:1022F00012C009F0BCEC0EF0144A152A14500F2439
:10230000D96E15501020DA6EDF50136E1350D8B40A
:102310001200E9D7D00E086EFF0E096E06C00AF053
:1023200007C00BF008500A2609500B220B5006E19B
:102330000A0E0A5CD8B002D0010E01D0000E066E63
:10234000076A120066EC12F0000E086ED00E076EDF
:102350004AEC12F0000E086E070E076E4AEC12F0FF
:10236000000E086E000E076E4AEC12F062EC12F0DE
:10237000120006C008F007C009F002D0064A072A7A
:1023800006C0D9FF07C0DAFFDF50D8A4F7D708503E
:10239000065C066E09500758076E1200000EF2BE6A
:1023A000010E066EF29E8C86140EE82EFED700D02B
:1023B0008C96530EE82EFED700F006B002D0F29EA7
:1023C00001D0F28E120006500802F3CF0AF0F4CFCB
:1023D0000BF006500902F3500B2607500802F35089
:1023E0000B260AC006F00BC007F0120068506918EF
:1023F000D8A402D0FF0E1200400E6824D96EDA6A0B
:10240000010EDA22DF50066E68283F0B686E065018
:102410001200685069C008F0096A085E000E095A87
:10242000400E0826000E09223F0E0814066E076AA9
:102430001200066E000E6724D96EDA6A010EDA22E7
:1024400006C0DFFF67283F0B676E9D881200076E8E
:102450008C500F0B8C6E0738F00B8C108C6ECEEC02
:1024600011F01200C7B4FED7C5CF06F01F0E061636
:10247000D8B41200F7D7086E08380F0B27EC12F00B
:10248000085027EC12F01200096E8C9409503BECB6
:1024900012F0120032EC12F007C0C9FF12006EEC0D
:1024A00012F06AEC12F0120076EC12F072EC12F0FC
:1024B000120089908994899289961200286E756C11
:1024C0006C29004632EC12F0C584120032EC12F096
:1024D000C580120089928996898012008992899616
:1024E0008984120089908994898212008990899444
:0624F000898612001200B3
:020000040020DA
:08000000FFFFFFFFFFFFFFFF00
:020000040030CA
:0E000000FF021F1EFF8381FF0F400FE00F4025
:00000001FF
