:020000040000FA
:0400000007EF00F016
:0A00080065822FED1AF061EF20F081
:10100000003132334134353642373839432A3023C0
:10101000440000006040105010400004101C0C0000
:1010200000496E697420636F6D706C6574650A00A9
:101030002563252D342E30660A00256325630A00BA
:10104000252E2A7300494E46004E414E00696E66B9
:09105000006E616E006C66000088
:10105A00000E0001B46F000EB36F8FC0C5F090C0D0
:10106A00C6F091C0C7F092C0C8F0C8AF16D0000E43
:10107A00B46F010EB36FC5C01BF0C6C01CF0C7C069
:10108A001DF0C8C01EF099EC24F01BC0C5F01CC0AE
:10109A00C6F01DC0C7F01EC0C8F0000E0001CC6F1C
:1010AA00000ECB6F54C0B8F055C0B9F0B351B411AB
:1010BA00D8A402D058A413D0B351B411D8A404D0E0
:1010CA00000E9E6F2B0E03D0000E9E6F2D0E9D6F8D
:1010DA009DC08DF1CB4BCC2BB807D8A0B907C5C0A2
:1010EA001BF0C6C01CF0C7C01DF0C8C01EF042EC01
:1010FA001EF01B041C10D8A44CD0BF0E0001946F24
:10110A00FF0E956F9351966F976B94519627955151
:10111A009723975106E11A0E965DD8B002D0010EB8
:10112A0001D0000E9F6FA06B9F51A011D8B40DD0B3
:10113A008D0ECB251B6E010ECC211C6E450E1D6E2D
:10114A00100E1E6EFCEC22F00CD08D0ECB251B6E01
:10115A00010ECC211C6E4D0E1D6E100E1E6EFCEC87
:10116A0022F00001FD0EB827FF0EB9238DC02FF023
:10117A008EC030F08D0E316E010E326EB8C033F073
:10118A00B9C034F0AFEC20F02FC08DF030C08EF033
:10119A001200C5C01BF0C6C01CF0C7C01DF0C8C0F5
:1011AA001EF042EC1EF01B501C10D8A435D0BF0E06
:1011BA000001946FFF0E956F9351966F976B945140
:1011CA00962795519723975106E11A0E965DD8B046
:1011DA0002D0010E01D0000EA16FA26BA151A21183
:1011EA00D8B40DD08D0ECB251B6E010ECC211C6EF2
:1011FA00490E1D6E100E1E6EFCEC22F0B2D78D0E3B
:10120A00CB251B6E010ECC211C6E510E1D6E100ECD
:10121A001E6EFCEC22F0A5D7000E0001CD6F000E69
:10122A00CE6F800ECF6F3F0ED06F000ECA6F000ECA
:10123A00C96FC5C01BF0C6C01CF0C7C01DF0C8C02E
:10124A001EF0000E1F6E000E206E000E216E000EA4
:10125A00226E41EC21F0D8A01ED076D0CDC034F059
:10126A00CEC035F0CFC036F0D0C037F0000E386EA1
:10127A00000E396E200E3A6E410E3B6E82EC12F071
:10128A0034C0CDF035C0CEF036C0CFF037C0D0F084
:10129A000001C94BCA2BC5C040F0C6C041F0C7C047
:1012AA0042F0C8C043F0000E386E000E396E200EB0
:1012BA003A6E410E3B6ECDC034F0CEC035F0CFC091
:1012CA0036F0D0C037F082EC12F034C044F035C0AA
:1012DA0045F036C046F037C047F0DAEC1DF0D8A02A
:1012EA001FD0BCD7CDC01BF0CEC01CF0CFC01DF0A4
:1012FA00D0C01EF0000E1F6E000E206E200E216E52
:10130A00410E226E38EC17F01BC0CDF01CC0CEF097
:10131A001DC0CFF01EC0D0F00001C907D8A0CA076F
:10132A00C5C040F0C6C041F0C7C042F0C8C043F0D3
:10133A00CDC044F0CEC045F0CFC046F0D0C047F093
:10134A00DAEC1DF0D8A0CED793C021F0226A9DEC2A
:10135A0023F021500001BA6FBAC0B7F0670EBA196C
:10136A00D8A419D056505710D8A404D0000E576EDE
:10137A00010E566E57BE05D0575008E15604D8B034
:10138A0005D0000EB66F060EB56F08D056C0B5F080
:10139A0057C0B6F003D057AEF9D7F3D7670EBA19CC
:1013AA00D8A422D0CAAF06D0FC0EC95DFF0ECA5916
:1013BA00D8A018D0FF0E946FFF0E956FB5C096F0A7
:1013CA00B6C097F09451962795519723C951965DC7
:1013DA009751800A986FCA51800A9859D8A002D0AA
:1013EA00660E01D0650EB76FB5C0ADF0B6C0AEF0EF
:1013FA00670EBA19D8A405D0660EB719D8B4CAAF01
:10140A0002D0AD4BAE2B660EB719D8A416D0CAAF10
:10141A000CD0000ECD6F000ECE6F800ECF6F3F0E38
:10142A00D06F000ECA6F000EC96F670EBA19D8B412
:10143A0004D0C951AD27CA51AE23000EC46F000EA5
:10144A00C36FC5C0BBF0C6C0BCF0C7C0BDF0C8C042
:10145A00BEF0CDC099F0CEC09AF0CFC09BF0D0C0FC
:10146A009CF07BD0BBC01BF0BCC01CF0BDC01DF003
:10147A00BEC01EF0CDC01FF0CEC020F0CFC021F0FC
:10148A00D0C022F038EC17F01BC034F01CC035F085
:10149A001DC036F01EC037F07CEC18F034C0BFF027
:1014AA0035C0C0F036C0C1F037C0C2F0BFC040F08E
:1014BA00C0C041F0C1C042F0C2C043F00EEC1FF000
:1014CA0040C0B1F041C0B2F0BBC044F0BCC045F06E
:1014DA00BDC046F0BEC047F0CDC038F0CEC039F02E
:1014EA00CFC03AF0D0C03BF0BFC034F0C0C035F036
:1014FA00C1C036F0C2C037F082EC12F034C048F0F6
:10150A0035C049F036C04AF037C04BF0E8EC23F05A
:10151A0044C0BBF045C0BCF046C0BDF047C0BEF0F9
:10152A00CDC01BF0CEC01CF0CFC01DF0D0C01EF045
:10153A00000E1F6E000E206E200E216E410E226ECE
:10154A0038EC17F01BC0CDF01CC0CEF01DC0CFF098
:10155A001EC0D0F00001C34BC42BAD51C35DC451B2
:10156A00800A946FAE51800A9459D8A07BD7CDC017
:10157A0034F0CEC035F0CFC036F0D0C037F0000E10
:10158A00386E000E396EA00E3A6E400E3B6E82EC3B
:10159A0012F034C0BFF035C0C0F036C0C1F037C059
:1015AA00C2F0BBC040F0BCC041F0BDC042F0BEC0FA
:1015BA0043F0BFC044F0C0C045F0C1C046F0C2C04D
:1015CA0047F0DAEC1DF0D8B003D0000E000118D0B5
:1015DA00BBC01BF0BCC01CF0BDC01DF0BEC01EF0DD
:1015EA00BFC01FF0C0C020F0C1C021F0C2C022F0AD
:1015FA0041EC21F0D8A00BD00001B1B108D0000E07
:10160A00BF6F000EC06F000EC16F000EC26FC5C063
:10161A0034F0C6C035F0C7C036F0C8C037F0BFC016
:10162A0038F0C0C039F0C1C03AF0C2C03BF02CEC6F
:10163A0014F034C0BBF035C0BCF036C0BDF037C0C2
:10164A00BEF099C0CDF09AC0CEF09BC0CFF09CC03E
:10165A00D0F0650E0001B719D8B405D0C9C0AFF0F3
:10166A00CAC0B0F004D0000EB06F000EAF6F000E0B
:10167A00AC6F000EAB6F000EAA6F000EA96F000EC2
:10168A00C46F000EC36FC7D0BBC01BF0BCC01CF038
:10169A00BDC01DF0BEC01EF0CDC01FF0CEC020F0F0
:1016AA00CFC021F0D0C022F038EC17F01BC034F0C4
:1016BA001CC035F01DC036F01EC037F07CEC18F0A7
:1016CA0034C0BFF035C0C0F036C0C1F037C0C2F078
:1016DA00BFC040F0C0C041F0C1C042F0C2C043F038
:1016EA000EEC1FF040C0B1F041C0B2F058B80DD0B6
:1016FA000001B151B211D8A408D0670EBA19D8B4F2
:10170A00B0AF03D0A94BAA2B3AD00001AB51AC1110
:10171A00D8B4B0AF22D08D0ECB25D96E010ECC2114
:10172A00DA6E2E0EDF6ECB4BCC2BB807D8A0B907DA
:10173A00000EAC6F010EAB6F10D08D0ECB25D96E9B
:10174A00010ECC21DA6E300EDF6ECB4BCC2BB807F4
:10175A00D8A0B907A907D8A0AA07A951AA11D8A43D
:10176A00ECD78D0ECB25D96E010ECC21DA6EB15194
:10177A00300FDF6ECB4BCC2BB807D8A0B907BBC054
:10178A0044F0BCC045F0BDC046F0BEC047F0CDC075
:10179A0038F0CEC039F0CFC03AF0D0C03BF0BFC06D
:1017AA0034F0C0C035F0C1C036F0C2C037F082ECA8
:1017BA0012F034C048F035C049F036C04AF037C09C
:1017CA004BF0E8EC23F044C0BBF045C0BCF046C087
:1017DA00BDF047C0BEF0CDC01BF0CEC01CF0CFC0DC
:1017EA001DF0D0C01EF0000E1F6E000E206E200EDF
:1017FA00216E410E226E38EC17F01BC0CDF01CC0D2
:10180A00CEF01DC0CFF01EC0D0F00001AF07D8A0A7
:10181A00B007C34BC42BAD51C35DC451800A946F4A
:10182A00AE51800A9459D8B008D0CCBF2DD7CC512C
:10183A0004E14B0ECB5DD8A027D7AB51AC11D8B47D
:10184A0058A80AD08D0ECB25D96E010ECC21DA6E9E
:10185A002E0EDF6ECB4BCC2B8D0ECB25D96E010E07
:10186A00CC21DA6E000EDF6E650EB719D8A47ED4CD
:10187A00000EC46F4F0EC36F8D0EC325D96E010EB5
:10188A00C421DA6E000EDF6E000EB46F000EB36F65
:10189A00CAAF08D0000EB46F010EB36FC96DCA1F6C
:1018AA00D8B0CA2B000EB66F020EB56F2BD0C30785
:1018BA00D8A0C4078D0EC325D96E010EC421DA6ED5
:1018CA00C9C01BF0CAC01CF0000E1E6E0A0E1D6EA7
:1018DA0009EC22F01B50300FDF6EC9C01BF0CAC0E2
:1018EA001CF0000E1E6E0A0E1D6E86EC21F01BC047
:1018FA00C9F01CC0CAF00001B507D8A0B607B807DE
:10190A00D8A0B907C951CA11D8A4D1D7B6BF05D032
:10191A00B651CDE1B505D8B0CAD7C307D8A0C40718
:10192A00B351B411D8A404D0000EA46F2B0E03D067
:10193A00000EA46F2D0EA36F8D0EC325D96E010E56
:10194A00C421DA6EA3C0DFFFB807D8A0B907C3075E
:10195A00D8A0C407BF0E946FFF0E956F9351966F70
:10196A00976B9451962795519723975106E11A0E32
:10197A00965DD8B002D0010E01D0000EA76FA86BF9
:10198A00A751A811D8A404D0000EA66F650E03D0E3
:10199A00000EA66F450EA56F8D0EC325D96E010EDA
:1019AA00C421DA6EA5C0DFFFB807D8A0B9078D0E2B
:1019BA00CB251B6E010ECC211C6E8D0EC3251D6E10
:1019CA00010EC4211E6EFCEC22F0BBEF08F0D3C05E
:1019DA00D9FFD4C0DAFFDECFF6FFDDCFF7FF08006C
:1019EA00F550250AD8A4C7D2D3C0D9FFD4C0DAFF8C
:1019FA00DE2A000EDD22000E556E000E546E54C013
:101A0A0058F055C059F056685768000E0001DE6F4D
:101A1A00000E14D05880D3C0D9FFD4C0DAFFDE2A12
:101A2A00000EDD222ED05882F6D75884F4D7588675
:101A3A00F2D75888F0D7000EDE6F010EDD6F21D085
:101A4A00D3C0D9FFD4C0DAFFDECFF6FFDDCFF7FF70
:101A5A000800F550D76FD86BD851000AD8A4EBD735
:101A6A00D751200AD8B4E3D7030AD8B4E2D7080A70
:101A7A00D8B4DBD7060AD8B4CDD71D0AD8B4D3D781
:101A8A00DAD7DD51DE11D8B4DBD758B05892D3C0BB
:101A9A00D9FFD4C0DAFFDECFF6FFDDCFF7FF0800AB
:101AAA00F5502A0AD8A423D0D3C0D9FFD4C0DAFF6C
:101ABA00DE2A000EDD22D5C0D9FFD6C0DAFFDFCF7D
:101ACA00D7F0020EDE26DFCFD8F0000EDD22D7C017
:101ADA00D9FFD8C0DAFFDECF54F0DDCF55F055AECE
:101AEA0040D05880546C551ED8B0552A3AD0D3C02D
:101AFA00D9FFD4C0DAFFDECF22F0DDCF23F0F6EC37
:101B0A001AF022C054F023C055F007D0D3C0D9FF31
:101B1A00D4C0DAFFDE2A000EDD22D00E0001D76F14
:101B2A00FF0ED86FD3C0D9FFD4C0DAFFDECFF6FFDD
:101B3A00DDCFF7FF0800F550D96FDA6BD751D927F7
:101B4A00D851DA23DA5106E10A0ED95DD8B002D0AB
:101B5A00010E01D0000EDF6FE06BDF51E011D8A457
:101B6A00D5D7D3C0D9FFD4C0DAFFDECFF6FFDDCF99
:101B7A00F7FF0800F5502E0AD8A46ED0000E576E53
:101B8A00000E566ED3C0D9FFD4C0DAFFDE2A000E8B
:101B9A00DD22D3C0D9FFD4C0DAFFDECFF6FFDDCF16
:101BAA00F7FF0800F5502A0AD8A41CD0D3C0D9FFE1
:101BBA00D4C0DAFFDE2A000EDD22D5C0D9FFD6C096
:101BCA00DAFFDFCFD7F0020EDE26DFCFD8F0000E25
:101BDA00DD22D7C0D9FFD8C0DAFFDECF56F0DDCF7D
:101BEA0057F03AD0D3C0D9FFD4C0DAFFDECF22F003
:101BFA00DDCF23F0F6EC1AF022C056F023C057F0DE
:101C0A0007D0D3C0D9FFD4C0DAFFDE2A000EDD2206
:101C1A00D00E0001D76FFF0ED86FD3C0D9FFD4C042
:101C2A00DAFFDECFF6FFDDCFF7FF0800F550D96FF8
:101C3A00DA6BD751D927D851DA23DA5106E10A0EDD
:101C4A00D95DD8B002D0010E01D0000EE16FE26B6F
:101C5A00E151E211D8A4D5D7D3C0D9FFD4C0DAFF55
:101C6A00DECFF6FFDDCFF7FF0800F550216E226ABE
:101C7A009DEC23F021500001E96FE951D8B435D029
:101C8A00D3C0D9FFD4C0DAFFDECFD7F0DDCFD8F08A
:101C9A00010ED727000ED823D7C0F6FFD8C0F7FF0A
:101CAA000800F550216E226A9DEC23F021500001B4
:101CBA00EA6FEA51D8B419D0D3C0D9FFD4C0DAFF39
:101CCA00DECFD7F0DDCFD8F0020ED727000ED8230B
:101CDA00D7C0F6FFD8C0F7FF0800F550216E226A78
:101CEA009DEC23F021500001EB6FD3C0D9FFD4C083
:101CFA00DAFFDECFF6FFDDCFF7FF0800F550630A03
:101D0A00D8A426D0D3C0D9FFD4C0DAFFDE2A000E69
:101D1A00DD22D5C0D9FFD6C0DAFFDFCFD7F0020E59
:101D2A00DE26DFCFD8F0000EDD22D7C0D9FFD8C01B
:101D3A00DAFFDF50EC6FD1C03AF0D2C03BF0ECC012
:101D4A003CF04FEC23F03AC0D1F03BC0D2F0120085
:101D5A00660EE919D8A43FD0D3C0D9FFD4C0DAFFA0
:101D6A00DECFF6FFDDCFF7FF0800F5CFECF0D3C0EA
:101D7A00D9FFD4C0DAFFDE2A000EDD22D5C0D9FF92
:101D8A00D6C0DAFFDFCFD7F0040EDE26DFCFD8F0D9
:101D9A00000EDD22D7C0D9FFD8C0DAFFDECFE5F0CA
:101DAA00DECFE6F0DECFE7F0DECFE8F0D1C08DF08F
:101DBA00D2C08EF0E5C08FF0E6C090F0E7C091F097
:101DCA00E8C092F0ECC093F02DEC08F08DC0D1F091
:101DDA008EC0D2F01200E90E1B6E000E1C6E550E5C
:101DEA001D6E100E1E6E000E206E020E1F6EC0ECCF
:101DFA001FF01B501C10D8A456D0D3C0D9FFD4C092
:101E0A00DAFFDECFD7F0DDCFD8F0010E0001D727F9
:101E1A00000ED823D7C0F6FFD8C0F7FF0800F5CFC9
:101E2A00ECF0BF0ED76FFF0ED86FD3C0D9FFD4C066
:101E3A00DAFFDECFF6FFDDCFF7FF0800F550D96FE6
:101E4A00DA6BD751D927D851DA23DA5106E11A0EBB
:101E5A00D95DD8B002D0010E01D0000EE36FE46B59
:101E6A00E351E411D5C0D9FFD6C0DAFFDFCFD7F0EE
:101E7A00040EDE26DFCFD8F0000EDD22D7C0D9FF50
:101E8A00D8C0DAFFDECFE5F0DECFE6F0DECFE7F04E
:101E9A00DECFE8F0020ED3C0D9FFD4C0DAFFDE26C7
:101EAA00000EDD2283D7D3C0D9FFD4C0DAFFDECF3C
:101EBA00F6FFDDCFF7FF0800F550730AD8A42AD041
:101ECA00D3C0D9FFD4C0DAFFDE2A000EDD22D5C086
:101EDA00D9FFD6C0DAFFDFCFD7F0020EDE26DFCF7A
:101EEA00D8F0000EDD22D7C0D9FFD8C0DAFFDECF86
:101EFA00DBF0DDCFDCF0D1C028F0D2C029F0DBC0A6
:101F0A002AF0DCC02BF036EC1CF028C0D1F029C036
:101F1A00D2F01200D3C0D9FFD4C0DAFFDECFF6FF69
:101F2A00DDCFF7FF0800F550250AD8A417D0D3C093
:101F3A00D9FFD4C0DAFFDE2A000EDD22000E206EA1
:101F4A00250E1F6ED1C021F0D2C022F011EC20F074
:101F5A00000E0001D26F010ED16F1200D3C0D9FF5B
:101F6A00D4C0DAFFDE2A000EDD22000E0001D26F95
:101F7A00000ED16F1200D3C0D9FFD4C0DAFFDECF72
:101F8A00F6FFDDCFF7FF0800F5501F6E206AD1C0BB
:101F9A0021F0D2C022F011EC20F0D3C0D9FFD4C076
:101FAA00DAFFDE2A000EDD22D3D726EC23F0DAECA4
:101FBA0024F041EC22F0A00E286E860E296E010E46
:101FCA002A6E000E2B6E79EC22F0FAEC20F0000E4D
:101FDA00206E000E1F6E000E226E000E216E76EC31
:101FEA0023F0210E1C6E100E1D6E6BEC1FF0000EFE
:101FFA000101706F000E726F000E716F21EE67F0B3
:10200A00070EDE6AE806FDE2000E1F6E000E206E65
:10201A00700E216E440E226E87C11BF088C11CF01F
:10202A0089C11DF08AC11EF038EC17F01BC034F0CC
:10203A001CC035F01DC036F01EC037F0000E386ED9
:10204A00000E396E480E3A6E430E3B6E82EC12F069
:10205A0034C07FF135C080F136C081F137C082F1DA
:10206A00000E1F6E000E206E700E216E440E226E40
:10207A0083C11BF084C11CF085C11DF086C11EF00E
:10208A0038EC17F01BC034F01CC035F01DC036F018
:10209A001EC037F0000E386E000E396E480E3A6ECA
:1020AA00430E3B6E82EC12F034C07BF135C07CF1FA
:1020BA0036C07DF137C07EF101018B51D8B408D00A
:1020CA0057EC19F021EE67F0070EDE6AE806FDE22A
:1020DA00010E01016727000E682369236A236B2317
:1020EA006C236D236E2314EC25F01CBE13D01C50F8
:1020FA0003E11B04D8A00ED001EC25F00101146FF6
:10210A003C0E7125D96E010E7221DA6E14C1DFFF01
:10211A00714B722B010172BF21D0725103E171051B
:10212A00D8A01CD0FF0E146FFF0E156F71C116F1E7
:10213A0072C117F114511627155117233C0E162593
:10214A00D96E010E1721DA6E0A0EDE18D8A406D04F
:10215A00010E706F000E726F000E716F7051D8B45D
:10216A00A3D1000E706F8FD1000E206E000E1F6E6D
:10217A00000E226E000E216E76EC23F0000E5B6ECE
:10218A00010E5A6E010E01018B6F59EC25F08CD1AC
:10219A00000E206E000E1F6E000E226E000E216EC3
:1021AA0076EC23F067EC25F07FD1000E206E000E4E
:1021BA001F6E000E226E000E216E76EC23F063EC89
:1021CA0025F072D1000E206E000E1F6E000E226ED8
:1021DA00000E216E76EC23F0000E01018B6F46ECA7
:1021EA0025F062D13E51146F156B1551000AD8A41F
:1021FA005BD11451420AD8B4B7D7040AD8B4E2D78B
:10220A000A0AD8B4C5D71E0AD8B4CFD74DD1000E02
:10221A00206E000E1F6E000E226E000E216E76ECEE
:10222A0023F0000E5B6E020E5A6E010E01018B6FD7
:10223A005EEC25F039D1000E206E000E1F6E000EE6
:10224A00226E000E216E76EC23F06FEC25F02CD175
:10225A00000E206E000E1F6E000E226E000E216E02
:10226A0076EC23F06BEC25F01FD13E51146F156B01
:10227A001551000AD8A418D11451420AD8B4C7D7A4
:10228A00040AD8B49FD70A0AD8B4D5D71E0AD8B434
:10229A00DFD70AD1000E206E000E1F6E000E226ECE
:1022AA00000E216E76EC23F07AEC25F0FDD0000EBC
:1022BA00206E000E1F6E000E226E000E216E76EC4E
:1022CA0023F077EC25F0F0D0000E206E000E1F6E82
:1022DA00000E226E000E216E76EC23F080D73E515E
:1022EA00146F156B1551000AD8A4DED01451460A92
:1022FA00D8B4EAD70A0AD8B4CDD71E0AD8B4D7D7E1
:10230A00D3D03D51146F156B1551000AD8A4CCD007
:10231A001451420AD8B4A9D7040AD8B463D7150A03
:10232A00D8B4DDD7C1D0000E206E000E1F6E000E8D
:10233A00226E000E216E76EC23F0550E0101006F1D
:10234A00010E016F400E026F100E036F000E056F33
:10235A00100E046F3E0E066F010E076FD2EC22F0CC
:10236A00550E1E6E010E1F6EC3EC23F09DD0000E9B
:10237A00206E010E1F6E000E226E000E216E76EC8C
:10238A0023F0550E0101006F010E016F400E026F1E
:10239A00100E036F000E056F100E046F3E0E066FCF
:1023AA00010E076FD2EC22F0DBD7000E206E020E70
:1023BA001F6E000E226E000E216E76EC23F0550E73
:1023CA000101006F010E016F400E026F100E036FC4
:1023DA00000E056F100E046F3E0E066F010E076F9A
:1023EA00D2EC22F0BDD7000E206E030E1F6E000E37
:1023FA00226E000E216E76EC23F0550E0101006F5D
:10240A00010E016F400E026F100E036F000E056F72
:10241A00100E046F3E0E066F010E076FD2EC22F00B
:10242A009FD73D51146F156B1551000AD8A43CD0A3
:10243A001451310AD8B477D7030AD8B498D7010A05
:10244A00D8B4B3D7070AD8B4CED72ED0320E006F7D
:10245A00010E016F300E026F100E036F000E056F32
:10246A004C0E046F7FC106F180C107F181C108F1EA
:10247A0082C109F1D2EC22F0320E1C6E010E1D6EE1
:10248A006BEC1FF011D03C51146F156B1551000AFB
:10249A00D8A40AD01451440AD8B4C3D7090AD8B464
:1024AA0030D71C0AD8B4D2D701018C51D8B4ACD5D4
:1024BA00000E8C6F81380F0B0F0B6F6F190E006FA8
:1024CA00010E016F3A0E026F100E036F000E056FB8
:1024DA004B0E046F010E6F25F66EF76A100EF72287
:1024EA000800F550066F076BD2EC22F0190E1C6E2D
:1024FA00010E1D6E6BEC1FF087D53750800B000163
:10250A00806F37503724866F36BE86818651D8B49D
:10251A000DD08629D8A408D0000E346E000E356E70
:10252A00000E366E000E376E368E08D0000E346EF0
:10253A00000E356E000E366E000E376E3B50800B65
:10254A00801B3B503B24816F3ABE81818151D8B4B4
:10255A000DD08129D8A408D0000E386E000E396E2D
:10256A00000E3A6E000E3B6E3A8E08D0000E386EA0
:10257A00000E396E000E3A6E000E3B6E8151D8B4D1
:10258A0003D08651D8A409D0000E346E000E356EE1
:10259A00000E366E000E376E12003A503402F3CF38
:1025AA008BF0F4CF8CF08B51826F836B846B856BCD
:1025BA008C51876F886B896B8A6B39503502F3CFE0
:1025CA008BF0F4CF8CF08B518227000E8323842367
:1025DA0085238C518727000E882389238A23385024
:1025EA003602F3CF8BF0F4CF8CF08B518227000E9A
:1025FA008323842385238C518727000E88238923EC
:10260A008A2384C085F083C084F082C083F0826B01
:10261A0038503502F3CF8BF0F4CF8CF08B518227F0
:10262A008C518323000E8423000E852339503402F3
:10263A00F3CF8BF0F4CF8CF08B5182278C5183230C
:10264A00000E8423000E852384C085F083C084F0A5
:10265A0082C083F0826B38503402F3CF8BF0F4CF10
:10266A008CF08B5182278C518323000E8423000E19
:10267A0085233A503502F3CF8BF0F4CF8CF08B518F
:10268A0087278C518823000E8923000E8A2339500C
:10269A003602F3CF8BF0F4CF8CF08B5187278C5115
:1026AA008823000E8923000E8A233A503602F3CF7C
:1026BA008BF0F4CF8CF08B513C6E8C513D6E3E6AA0
:1026CA003F6A3EC03FF03DC03EF03CC03DF03C6A30
:1026DA003C5087273D5088233E5089233F508A2308
:1026EA0082C03CF083C03DF084C03EF085C03FF01C
:1026FA00190E05D0D8903F323E323D323C32E82E98
:10270A00F9D73C5087273D5088233E5089233F50B4
:10271A008A2384C085F083C084F082C083F0826BF0
:10272A00815186C03CF03D6A3C26000E3D22820E55
:10273A003C248B6FFF0E3D208C6F0FD0D8908737CB
:10274A00883789378A3785BF8781D8908237833718
:10275A00843785378B07D8A08C0789AFEFD7000E4F
:10276A00816F85AF17D0FF0E82153C6EFF0E831561
:10277A003D6EFF0E84153E6E7F0E85153F6E3C50F2
:10278A003D103E103F10D8B403D0010E816F02D025
:10279A0087B1FBD78151D8B41FD0010E8727000E0D
:1027AA00882389238A238AA117D087C03CF088C04E
:1027BA003DF089C03EF08AC03FF03F343F323E329E
:1027CA003D323C323CC087F03DC088F03EC089F0C3
:1027DA003FC08AF08B4B8C2B8CBF0DD08C5103E100
:1027EA008B29D8A008D0000E876F000E886F800E44
:1027FA00896F7F0E20D08CBF05D08C510EE18B05DE
:10280A00D8B00BD0000E876F000E886F000E896F4C
:10281A00000E8A6F000E806F0FD08BC086F0FF0EFD
:10282A008717FF0E88177F0E8917000E8A1786B141
:10283A00898FD89086318A6F80518A1387C034F085
:10284A0088C035F089C036F08AC037F01200375098
:10285A00800B406E37503724426E36BE428042505B
:10286A00D8B40DD04228D8A408D0000E346E000E79
:10287A00356E000E366E000E376E368E06D0000E9E
:10288A00346E000E356E000E366E000E376E3B50FB
:10289A00800B416E40504118D8A4408C3B503B24D9
:1028AA00416E3ABE41804150D8B40DD04128D8A4D7
:1028BA0008D0000E386E000E396E000E3A6E000E09
:1028CA003B6E3A8E06D0000E386E000E396E000E40
:1028DA003A6E000E3B6E4250415CD8B022D040ACFA
:1028EA0002D0800E401A42C043F041C042F043C0B9
:1028FA0041F034C043F038C034F043C038F035C03A
:10290A0043F039C035F043C039F036C043F03AC01D
:10291A0036F043C03AF037C043F03BC037F043C00B
:10292A003BF0000E436E425041C03CF03D6A3C5EB3
:10293A00000E3D5A3DBE2CD03D5004E11A0E3C5CBF
:10294A00D8A026D03450351036103710D8B402D05B
:10295A00010E01D0000E436E000E346E000E356E6D
:10296A00000E366E000E376E41C042F015D043A0FD
:10297A0005D0D89043300109436E02D0D890433233
:10298A0034B0438E37343732363235323432422A13
:10299A004150425CD8A0EBD740BC28D04250D8A4C2
:1029AA0009D0000E346E000E356E000E366E000E23
:1029BA00376E120038503426395035223A503622B2
:1029CA003B50372237A071D043A005D0D89043306E
:1029DA000109436E02D0D890433234B0438E373463
:1029EA003732363235323432422A5FD03850345C8C
:1029FA00395035583A5036583750800A3C6E3B5059
:102A0A00800A3C58D8B025D03450385C3C6E3550DA
:102A1A0039583D6E36503A583E6E37503B583F6EE5
:102A2A00FF0E3C24346EFF0E3D20356EFF0E3E2015
:102A3A00366EFF0E3F20376E800E401A436C4350AD
:102A4A00D8A40FD0010E3426000E352236223722A2
:102A5A0008D03850345E3950355A3A50365A3B50BD
:102A6A00375A3450351036103710D8A41CD043507A
:102A7A00D8A419D0000E346E000E356E000E366ED4
:102A8A00000E376E1200D890343635363636373661
:102A9A0043BE348043A002D0D88001D0D8904336B8
:102AAA004250D8A4420636AEEED7000E416E43AE6F
:102ABA000BD043C03CF07F0E3C16D8B403D0010EB5
:102ACA00416E02D034B0FBD74150D8B420D0010EA9
:102ADA003426000E35223622372237A018D034C0C9
:102AEA003CF035C03DF036C03EF037C03FF03F34D1
:102AFA003F323E323D323C323CC034F03DC035F0CC
:102B0A003EC036F03FC037F04228D8A4422A4228B5
:102B1A00D8B403D04250D8A40DD0000E346E000EA3
:102B2A00356E000E366E000E376E4250D8A402D0B3
:102B3A00000E406E42A002D0368E01D0369ED8904A
:102B4A004230376E40BE378E34C034F035C035F06F
:102B5A0036C036F037C037F012000450800B0D6EC5
:102B6A00045004240F6E03BE0F800F50D8B40DD04A
:102B7A000F28D8A408D0000E016E000E026E000EB7
:102B8A00036E000E046E038E06D0000E016E000E58
:102B9A00026E000E036E000E046E0850800B0E6E5D
:102BAA000D500E18D8A40D8C085008240E6E07BEBE
:102BBA000E800E50D8B40DD00E28D8A408D0000E1E
:102BCA00056E000E066E000E076E000E086E078E6A
:102BDA0006D0000E056E000E066E000E076E000E81
:102BEA00086E0F500E5CD8B022D00DAC02D0800E09
:102BFA000D1A0FC010F00EC00FF010C00EF001C079
:102C0A0010F005C001F010C005F002C010F006C0B7
:102C1A0002F010C006F003C010F007C003F010C0A5
:102C2A0007F004C010F008C004F010C008F0000E4D
:102C3A00106E0F500EC009F00A6A095E000E0A5A99
:102C4A000ABE2CD00A5004E11A0E095CD8A026D07C
:102C5A000150021003100410D8B402D0010E01D0A2
:102C6A00000E106E000E016E000E026E000E036E54
:102C7A00000E046E0EC00FF015D010A005D0D8902B
:102C8A0010300109106E02D0D890103201B0108EA7
:102C9A00043404320332023201320F2A0E500F5C1E
:102CAA00D8A0EBD70DBC28D00F50D8A409D0000E5D
:102CBA00016E000E026E000E036E000E046E12000C
:102CCA00055001260650022207500322085004220A
:102CDA0004A071D010A005D0D89010300109106E50
:102CEA0002D0D890103201B0108E0434043203326C
:102CFA00023201320F2A5FD00550015C0650025899
:102D0A00075003580450800A096E0850800A09586F
:102D1A00D8B025D00150055C096E025006580A6EDB
:102D2A00035007580B6E045008580C6EFF0E092406
:102D3A00016EFF0E0A20026EFF0E0B20036EFF0EBD
:102D4A000C20046E800E0D1A106C1050D8A40FD0EF
:102D5A00010E0126000E02220322042208D0055089
:102D6A00015E0650025A0750035A0850045A01508D
:102D7A00021003100410D8A41CD01050D8A419D0E3
:102D8A00000E016E000E026E000E036E000E046E3F
:102D9A001200D890013602360336043610BE01807E
:102DAA0010A002D0D88001D0D89010360F50D8A4E5
:102DBA000F0603AEEED7000E0E6E10AE0BD010C08B
:102DCA0009F07F0E0916D8B403D0010E0E6E02D098
:102DDA0001B0FBD70E50D8B420D0010E0126000E48
:102DEA0002220322042204A018D001C009F002C062
:102DFA000AF003C00BF004C00CF00C340C320B3296
:102E0A000A32093209C001F00AC002F00BC003F00D
:102E1A000CC004F00F28D8A40F2A0F28D8B403D066
:102E2A000F50D8A40DD0000E016E000E026E000ED7
:102E3A00036E000E046E0F50D8A402D0000E0D6E61
:102E4A000FA002D0038E01D0039ED8900F30046EDB
:102E5A000DBE048E01C001F002C002F003C003F0EF
:102E6A0004C004F012001E50800B2B6E1E501E244C
:102E7A00326E1DBE32803250D8B40DD03228D8A45A
:102E8A0008D0000E1B6E000E1C6E000E1D6E000E8A
:102E9A001E6E1D8E06D0000E1B6E000E1C6E000EDE
:102EAA001D6E000E1E6E2250800B2B1A22502224F9
:102EBA00336E21BE33803350D8B40DD03328D8A412
:102ECA0008D0000E1F6E000E206E000E216E000E3E
:102EDA00226E218E06D0000E1F6E000E206E000E8E
:102EEA00216E000E226E1F50201021102210D8A42D
:102EFA0017D0000E1B6E000E1C6E000E1D6E000E0B
:102F0A001E6E800E1D127F0E1E122B501E121BC02B
:102F1A001BF01CC01CF01DC01DF01EC01EF01200CC
:102F2A003250D8A409D0000E1B6E000E1C6E000E83
:102F3A001D6E000E1E6E1200335032C023F0246A3A
:102F4A00235E000E245A7F0E23242C6E000E2420AA
:102F5A002D6E1BC027F01CC028F01DC029F01EC012
:102F6A002AF0000E1B6E000E1C6E000E1D6E000E67
:102F7A001E6E000E2E6E000E2F6E000E306E000EAC
:102F8A00316E000E336E28D03350D8B411D0D89099
:102F9A002736283629362A36D8901B361C361D364F
:102FAA001E3631BE1B80D8902E362F36303631363B
:102FBA001F50275C205028582150295822502A583F
:102FCA00D8A009D0318C1F50275E2050285A215092
:102FDA00295A22502A5A332A190E3364D5D7275030
:102FEA00281029102A10D8B411D02E800FD0D890CA
:102FFA001B361C361D361E3631BE1B80D8902E3627
:10300A002F36303631362C06D8A02D061DAEEFD716
:10301A00000E336E31AE17D0FF0E2E14236EFF0E44
:10302A002F14246EFF0E3014256E7F0E3114266E77
:10303A002350241025102610D8B403D0010E336E65
:10304A0002D01BB0FBD73350D8B41FD0010E1B26B9
:10305A00000E1C221D221E221EA017D01BC023F008
:10306A001CC024F01DC025F01EC026F026342632CE
:10307A0025322432233223C01BF024C01CF025C081
:10308A001DF026C01EF02C4A2D2A2DBE10D02D5020
:10309A0003E12C28D8A00BD0000E2D6E2C68000E50
:1030AA001B6E000E1C6E000E1D6E000E1E6E2DBED7
:1030BA0005D02D5011E12C04D8B00ED0000E2D6E83
:1030CA00000E2C6E000E1B6E000E1C6E000E1D6E86
:1030DA00000E1E6E000E2B6E2CC032F032A002D0F3
:1030EA001D8E01D01D9ED89032301E6E0ED773C130
:1030FA0044F074C145F075C146F076C147F034C05A
:10310A0044F035C045F036C046F037C047F0810E6E
:10311A00386EFF0E396E44C03AF045C03BF046C0E7
:10312A003CF047C03DF0180E05D0D8903D323C32F5
:10313A003B323A32E82EF9D73A503824426E000E22
:10314A003920436E43BE0FD0435004E1170E425C50
:10315A00D8A009D034C034F035C035F036C036F0C6
:10316A0037C037F0120043BE5ED042C038F0FF0EBF
:10317A00396EFF0E3A6E7F0E3B6E000E3C6E38665D
:10318A0001D007D03C343C323B323A323932382E05
:10319A00F6D739C03EF03AC03FF03BC040F03CC0E1
:1031AA0041F03E504414386E3F504514396E405039
:1031BA0046143A6E415047143B6E385039103A1053
:1031CA003B10D8B4C7D744C038F045C039F046C020
:1031DA003AF047C03BF0200E05D0D8903B323A3245
:1031EA0039323832E82EF9D7385039103A103B10B4
:1031FA00D8B408D03E5044263F504522405046227B
:10320A00415047223E1C386E3F1C396E401C3A6EB4
:10321A00411C3B6E38504416395045163A504616F2
:10322A003B50471636D044C038F045C039F046C046
:10323A003AF047C03BF0200E05D0D8903B323A32E4
:10324A0039323832E82EF9D7385039103A103B1053
:10325A00D8A408D0000E446E000E456E000E466ECD
:10326A00000E16D0D8904434386E4534396E463440
:10327A003A6E47343B6E385039103A103B10D8B486
:10328A0008D0000E446E000E456E800E466EBF0ECC
:10329A00476E44C034F045C035F046C036F047C0EA
:1032AA0037F012005A045B10D8A467D04C50505C17
:1032BA001B6E4D5051581C6E4E5052581D6E4F5039
:1032CA0053581E6E010E96EC1BF01BC09BF01CC0DF
:1032DA009CF01DC09DF01EC09EF0000E1F6E000ED9
:1032EA00206E600E216E400E226E9BC01BF09CC0A9
:1032FA001CF09DC01DF09EC01EF038EC17F01BC0DC
:10330A0034F01CC035F01DC036F01EC037F061C065
:10331A0038F062C039F063C03AF064C03BF02CEC7C
:10332A0014F034C061F035C062F036C063F037C0C3
:10333A0064F061C08DF062C08EF063C08FF064C02B
:10334A0090F0CAEC1CF0F9C08DF0FAC08EF0FBC008
:10335A008FF0FCC090F052EC1DF0000E506E000E83
:10336A00516E000E526E000E536E000E4C6E000E21
:10337A004D6E000E4E6E000E4F6E020E5A185B1006
:10338A00D8A4120050504C5C1B6E51504D581C6E04
:10339A0052504E581D6E53504F581E6E010E96ECE9
:1033AA001BF01BC09BF01CC09CF01DC09DF01EC0F2
:1033BA009EF0000E1F6E000E206E600E216E400EF3
:1033CA00226E9BC01BF09CC01CF09DC01DF09EC0CD
:1033DA001EF038EC17F01BC034F01CC035F01DC0CD
:1033EA0036F01EC037F061C038F062C039F063C0F1
:1033FA003AF064C03BF02CEC14F034C061F035C0F4
:10340A0062F036C063F037C064F061C08DF062C00C
:10341A008EF063C08FF064C090F0CAEC1CF0F9C063
:10342A008DF0FAC08EF0FBC08FF0FCC090F052EC29
:10343A001DF0000E506E000E516E000E526E000E00
:10344A00536E000E4C6E000E4D6E000E4E6E000E48
:10345A004F6E12000600D9CF19F0DACF1AF0F2B87F
:10346A00F2A245D083A020D087C101F088C102F022
:10347A0089C103F08AC104F0000E056E000E066EC3
:10348A00800E076E3F0E086EB2EC15F001C087F190
:10349A0002C088F103C089F104C08AF1010E5026E6
:1034AA00000E5122522221D087C111F088C112F098
:1034BA0089C113F08AC114F0000E156E000E166E43
:1034CA00800E176E3F0E186E0BEC24F011C087F1B8
:1034DA0012C088F113C089F114C08AF1FF0E502678
:1034EA00FF0E5122FF0E5222FF0E5322F292F0B823
:1034FA00F0A245D083A220D083C101F084C102F09A
:10350A0085C103F086C104F0000E056E000E066E3A
:10351A00800E076E3F0E086EB2EC15F001C083F103
:10352A0002C084F103C085F104C086F1010E4C2665
:10353A00000E4D224E2221D083C111F084C112F017
:10354A0085C113F086C114F0000E156E000E166EBA
:10355A00800E176E3F0E186E0BEC24F011C083F12B
:10356A0012C084F113C085F114C086F1FF0E4C26F7
:10357A00FF0E4D22FF0E4E22FF0E4F22F092F0B0A8
:10358A00F0A604D0010E01018C6FF0909DBA9EAA9C
:10359A000CD0400E6024D96EDA6A020EDA22AECF5F
:1035AA00DFFF60283F0B606E9E9A9DB89EA813D0DD
:1035BA005E505D18D8B40DD0000E5D24D96EDA6A5B
:1035CA00020EDA22DF50AD6E5D283F0B5D6E9E98CB
:1035DA0002D09E989D981AC0DAFF19C0D9FF659249
:1035EA001100000E306E000E2F6E000E296E000EB6
:1035FA00286E02D0224A232A010E2E6E22C0F6FF1E
:10360A0023C0F7FF0800F550200AD8B418D0F70EE7
:10361A00246EFF0E256E22C0F6FF23C0F7FF0800B6
:10362A00F550266E276A2450262625502722275031
:10363A0004E1050E265CD8A002D0000E2E6E2EC024
:10364A002AF02B6A2A502B10D8B408D0D3D7000EF0
:10365A00296E010E286E224A232A2ED022C0F6FF96
:10366A0023C0F7FF0800F550246E256A2550000A8A
:10367A00D8A422D024502B0AD8B4EDD7060AD8B43D
:10368A00E6D71AD02FC01BF030C01CF0000E1E6EF9
:10369A000A0E1D6EEEEC24F022C0F6FF23C0F7FFDF
:1036AA000800F5501B5E000E1C5A300E1B242F6EAC
:1036BA00000E1C20306ECFD7D00E246EFF0E256E62
:1036CA0022C0F6FF23C0F7FF0800F550266E276ACE
:1036DA002450262625502722275006E10A0E265C6A
:1036EA00D8B002D0010E01D0000E2C6E2D6A2C50DB
:1036FA002D10D8A4C7D728502910D8A40DD02FC070
:10370A0024F030C025F0241E251E244A252A24C070
:10371A0022F025C023F012002FC022F030C023F07F
:10372A001200236E2350D8A41EAE1AD01BC01FF05D
:10373A001CC020F01DC021F01EC022F01F1E201E3A
:10374A00211E221E1F2A000E2022212222221FC0F1
:10375A0025F020C026F021C027F022C028F008D08A
:10376A001BC025F01CC026F01DC027F01EC028F083
:10377A001B501C101D101E10D8A409D0000E1B6E61
:10378A00000E1C6E000E1D6E000E1E6E1200960EAE
:10379A00246E06D0242AD89028322732263225329F
:1037AA00000E25141F6E000E2614206E000E27141C
:1037BA00216EFE0E2814226E1F5020102110221096
:1037CA00D8B40DD0E7D7242A010E2526000E2622CA
:1037DA0027222822D8902832273226322532000E74
:1037EA0025141F6E000E2614206E000E2714216E5B
:1037FA00FF0E2814226E1F50201021102210D8B458
:10380A0007D0E1D72406D89025362636273628361B
:10381A0027BE03D0020E2460F5D724A0279ED89095
:10382A00243224C01FF0206A216A226A1FC022F0B3
:10383A00216A206A1F6A1F50251220502612215021
:10384A002712225028122350D8A41EAE01D0288E47
:10385A0025C01BF026C01CF027C01DF028C01EF092
:10386A00120021EEDDF010EE2DF0060EDBCFE3FFA5
:10387A00E806FCE22AC038F02BC039F0385039107B
:10388A00D8A404D02D0E386E000E396E38C01BF045
:10389A0039C01CF0B0EC24F01BC03CF01CC03DF059
:1038AA0056C03AF057C03BF03BBE0ED03C503A5C93
:1038BA003B50800A2C6E3D50800A2C58D8B004D058
:1038CA003AC03CF03BC03DF03CC03AF03DC03BF052
:1038DA0054C036F055C037F058A00DD016D0000E9F
:1038EA00206E200E1F6E28C021F029C022F011EC94
:1038FA0020F03C4A3D2A36503C5C3D50800A2C6EF2
:10390A003750800A2C58D8A0EAD7000E356E000E20
:10391A00346E13D038C0D9FF39C0DAFFDF502C6EAD
:10392A002C501F6E206A28C021F029C022F011EC09
:10393A0020F0384A392A344A352A3A50345C35500C
:10394A00800A2C6E3B50800A2C58D8A0E3D758B076
:10395A000DD016D0000E206E200E1F6E28C021F04A
:10396A0029C022F011EC20F03C4A3D2A36503C5C3A
:10397A003D50800A2C6E3750800A2C58D8A0EAD7BE
:10398A003CC028F03DC029F01200000190BF12008F
:10399A00000E406E000E416EC80E426E420E436E1D
:1039AA008DC044F08EC045F08FC046F090C047F0FD
:1039BA00DAEC1DF0D8A01200010ECB240001976F9B
:1039CA00986B000E9823000E1F6E000E206EC80E14
:1039DA00216E420E226E000E386E000E396E800E77
:1039EA003A6E400E3B6E8DC034F08EC035F08FC0FB
:1039FA0036F090C037F082EC12F034C01BF035C0BC
:103A0A001CF036C01DF037C01EF038EC17F01BC092
:103A1A0093F01CC094F01DC095F01EC096F097C09C
:103A2A001BF098C01CF01D6A1E6A000E96EC1BF073
:103A3A001BC038F01CC039F01DC03AF01EC03BF064
:103A4A0093C034F094C035F095C036F096C037F084
:103A5A0082EC12F034C040F035C041F036C042F07A
:103A6A0037C043F00EEC1FF040C099F041C09AF005
:103A7A00BD9A000199A102D0BD8801D0BD9899C014
:103A8A0091F09AC092F00001D89092339133D89075
:103A9A00923391339151BE6E1200000190BF120011
:103AAA00000E406E000E416EC80E426E420E436E0C
:103ABA008DC044F08EC045F08FC046F090C047F0EC
:103ACA00DAEC1DF0D8A01200010ECB240001976F8A
:103ADA00986B000E9823000E1F6E000E206EC80E03
:103AEA00216E420E226E000E386E000E396E800E66
:103AFA003A6E400E3B6E8DC034F08EC035F08FC0EA
:103B0A0036F090C037F082EC12F034C01BF035C0AA
:103B1A001CF036C01DF037C01EF038EC17F01BC081
:103B2A0093F01CC094F01DC095F01EC096F097C08B
:103B3A001BF098C01CF01D6A1E6A000E96EC1BF062
:103B4A001BC038F01CC039F01DC03AF01EC03BF053
:103B5A0093C034F094C035F095C036F096C037F073
:103B6A0082EC12F034C040F035C041F036C042F069
:103B7A0037C043F00EEC1FF040C099F041C09AF0F4
:103B8A00BA9A000199A102D0BA8801D0BA9899C00C
:103B9A0091F09AC092F00001D89092339133D89064
:103BAA00923391339151BB6E1200000E4014486E4D
:103BBA00000E4114496E800E42144A6E7F0E431461
:103BCA004B6E485049104A104B10D8A408D0000E2A
:103BDA00406E000E416E000E426E000E436E000EE5
:103BEA004414486E000E4514496E800E46144A6EFF
:103BFA007F0E47144B6E485049104A104B10D8A4F8
:103C0A0008D0000E446E000E456E000E466E000E81
:103C1A00476E43AE09D0406C411ED8B0412A421EBD
:103C2A00D8B0422A800E435647AE09D0446C451E8E
:103C3A00D8B0452A461ED8B0462A800E4756000EEE
:103C4A00401A000E411A000E421A800E431A000E44
:103C5A00441A000E451A000E461A800E471A44509E
:103C6A00405C455041584650425847504358D8B096
:103C7A0002D0D8901200D880120077C125F078C1FE
:103C8A0026F079C127F07AC128F01BC025F01CC0A4
:103C9A0026F01DC027F01EC028F025C01FF026C040
:103CAA0020F027C021F028C022F0180E05D0D890A5
:103CBA002232213220321F32E82EF9D71F50236ECA
:103CCA00246A23502410D8A419D0D89025341F6E02
:103CDA002634206E2734216E2834226E1F5020107D
:103CEA0021102210D8A405D0000E1C6E020E1B6EE5
:103CFA001200000E1C6E030E1B6E120023282410E5
:103D0A00D8A41CD025C01FF026C020F027C021F05F
:103D1A0028C022F0090ED8901F36203621362236C6
:103D2A00E82EF9D71F50201021102210D8A402D053
:103D3A00010E01D0000E1B6E1C6A1200000E1C6ED2
:103D4A00040E1B6E1200000E246E22AE0AD0221E32
:103D5A00211E201E1F6C000E202221222222010E6B
:103D6A00246E1EAE0AD01E1E1D1E1C1E1B6C000ECB
:103D7A001C221D221E22010E241A000E256E000E80
:103D8A00266E000E276E000E286E1F50201021107E
:103D9A002210D8B42AD0010E236E06D0D8901F362E
:103DAA00203621362236232A22AEF8D7D890253655
:103DBA002636273628361F501B5C20501C582150A7
:103DCA001D5822501E58D8A009D01F501B5E2050E3
:103DDA001C5A21501D5A22501E5A2580D890223230
:103DEA00213220321F32232EE1D72450D8B408D0F2
:103DFA00281E271E261E256C000E26222722282270
:103E0A0025C01BF026C01CF027C01DF028C01EF0DC
:103E1A00120042344334496E4950D8A409D0000EE6
:103E2A00406E000E416E000E426E000E436E12008E
:103E3A0040C044F041C045F042C046F043C047F09C
:103E4A00200E05D0D8904732463245324432E82E09
:103E5A00F9D74450486E428EFF0E4016FF0E4116A7
:103E6A00FF0E4216000E4316960E495E49AE0DD05D
:103E7A004950800A970FD8A0D2D7D89043324232FD
:103E8A0041324032493EF9D70DD01F0E496407D05E
:103E9A00C6D7D8904036413642364336490649504D
:103EAA00D8A4F7D74850D8B408D0431E421E411EA2
:103EBA00406C000E41224222432240C040F041C0E1
:103ECA0041F042C042F043C043F01200000E216E9E
:103EDA00000E206E35D020501C241E6E21501D204D
:103EEA001F6E1EC0F6FF1FC0F7FF000EF86E0F0E02
:103EFA00F76403D00800F55005D0F6CFE1FFF7CFFD
:103F0A00E2FFE7500009D8B4120020501C241E6EAC
:103F1A0021501D201F6E1EC0F6FF1FC0F7FF000EA6
:103F2A00F86E0F0EF76403D00800F55005D0F6CFEF
:103F3A00E1FFF7CFE2FFE75024EC25F0204A212ADF
:103F4A0020501C241E6E21501D201F6E1EC0F6FF1D
:103F5A001FC0F7FF000EF86E0F0EF76403D00800BB
:103F6A00F55005D0F6CFE1FFF7CFE2FFE7500009A1
:103F7A00D8B41200B0D71BC022F01CC023F01DC059
:103F8A0024F01EC025F01F06D8A020061F280FE126
:103F9A002028D8A40CD0000E1C6E000E1B6E120036
:103FAA00224A232A244A252A1F06D8A0200622C0EC
:103FBA00D9FF23C0DAFFDF50D8B41CD024C0F6FFE3
:103FCA0025C0F7FF0800F5500009D8B413D01F50D8
:103FDA002010D8B40FD022C0D9FF23C0DAFFDF5097
:103FEA00216E24C0F6FF25C0F7FF0800F5502118FE
:103FFA00D8B4D6D722C0D9FF23C0DAFFDF50216E4A
:10400A0024C0F6FF25C0F7FF0800F550215C1B6E9F
:10401A001C6AD8A01C06120021502210D8B404D061
:10402A0021502210D8A404D01F504DEC25F01200C4
:10403A0020EE04F02150D9262250DA22DE50DE107A
:10404A00D8B416D020EE04F02150D9262250DA2214
:10405A0010EE02F02150E1262250E222DE50E65C08
:10406A00E650800A276EDE50800A2758D8B0120020
:10407A0020EE02F02150D9262250DA22DECF23F098
:10408A00DDCF24F021C0D9FF22C0DAFFDECF25F030
:10409A00DDCF26F023502524D96E24502620DA6E4F
:1040AA001FC0DFFF20EE02F02150D9262250DA226B
:1040BA00DE2A000EDD221200E60EF66E4A0EF76EBA
:1040CA00000EF86E01EEDDF010EE07F00900F5CFF4
:1040DA00EEFFE550E150FAE1FE0EF66E4A0EF76E7B
:1040EA00000EF86E00EEF9F010EE04F00900F5CFBC
:1040FA00EEFFE550E150FAE1FA0EF66E4A0EF76E5F
:10410A00000EF86E00EE61F010EE04F00900F5CF33
:10411A00EEFFE550E150FAE102EE00F0800EEE6AA1
:10412A00E806FDE101EE73F06A0EEE6AE806FDE1CB
:10413A000001F86BF76BF66BF56B00EE4CF0150EA1
:10414A00EE6AE806FDE165906592000EF86E0001E0
:10415A00DAEF0FF058A00AD031C028F032C029F0A7
:10416A002FC02AF030C02BF04DEC24F034BE05D01D
:10417A0033C038F034C039F004D0000E396E000E66
:10418A00386E000E376E000E366E0CD0000E206EA2
:10419A00200E1F6E2FC021F030C022F011EC20F04B
:1041AA00364A372A3850365C3750800A356E3950CD
:1041BA00800A3558D8A0EAD758B00AD031C028F0BA
:1041CA0032C029F02FC02AF030C02BF04DEC24F079
:1041DA0031C01BF032C01CF0B0EC24F038501B2464
:1041EA002F6E39501C20306E1200000E606E000EC9
:1041FA005F6E000E5E6E000E5D6E000E2D6E4B0E33
:10420A002E6E000E2F6E000E306E000E1B6E5A0EB2
:10421A001C6E620E1D6E020E1E6E2DC029F02EC07F
:10422A002AF02FC02BF030C02CF0060ED890293679
:10423A002A362B362C36E82EF9D729C01FF02AC089
:10424A0020F02BC021F02CC022F0A8EC1EF01B0499
:10425A00AF6E949C948EAC9CAC98AC8A410E296E3D
:10426A00EE0EE82EFED7292EFCD700D0AB8EAB9CE3
:10427A00AB889D8A9D881200000E1B14236E000EC7
:10428A001C14246E800E1D14256E7F0E1E14266EBD
:10429A002350241025102610D8A408D0000E1B6E17
:1042AA00000E1C6E000E1D6E000E1E6E000E1F14F8
:1042BA00236E000E2014246E800E2114256E7F0EAC
:1042CA002214266E2350241025102610D8A408D0B4
:1042DA00000E1F6E000E206E000E216E000E226E62
:1042EA001F501B180AE120501C1807E121501D1805
:1042FA0004E122501E18D8B402D0D8901200D880F7
:10430A001200000E206E1EAE06D01D6C1E1ED8B006
:10431A001E2A010E206E1CAE06D01B6C1C1ED8B0C5
:10432A001C2A010E201A000E226E000E216E1D504C
:10433A001E10D8B41CD0010E1F6E04D0D8901D36A2
:10434A001E361F2A1EAEFAD7D890213622361D50A5
:10435A001B5C1E501C58D8A005D01D501B5E1E5059
:10436A001C5A2180D8901E321D321F2EEDD72050A4
:10437A00D8B404D0216C221ED8B0222A21C01BF046
:10438A0022C01CF01200000E236E000E246E000ED6
:10439A00256E000E266E1F50201021102210D8B450
:1043AA002AD0010E276E06D0D8901F362036213625
:1043BA002236272A22AEF8D7D89023362436253635
:1043CA0026361F501B5C20501C5821501D58225065
:1043DA001E58D8A009D01F501B5E20501C5A2150CD
:1043EA001D5A22501E5A2380D8902232213220325E
:1043FA001F32272EE1D723C01BF024C01CF025C092
:10440A001DF026C01EF01200000E206E1CAE06D053
:10441A001B6C1C1ED8B01C2A010E206E1EAE04D0C6
:10442A001D6C1E1ED8B01E2A1D501E10D8B418D0DE
:10443A00010E1F6E04D0D8901D361E361F2A1EAEDE
:10444A00FAD71D501B5C1E501C58D8A004D01D5012
:10445A001B5E1E501C5AD8901E321D321F2EF1D7D9
:10446A002050D8B404D01B6C1C1ED8B01C2A1BC008
:10447A001BF01CC01CF01200C30E1F6ECD0EE82EDE
:10448A00FED71F2EFCD700F08C94030E32EC25F0D9
:10449A00410E1F6EEE0EE82EFED71F2EFCD700D05F
:1044AA00030E32EC25F0D60E00D000D0E82EFCD751
:1044BA0000D0320E3DEC25F0280E3DEC25F0080E1A
:1044CA003DEC25F0010E3DEC25F0410E1F6EEE0E7F
:1044DA00E82EFED71F2EFCD700D0060E3DEC25F0A5
:1044EA000C0E53EC25F01200C69A94869488000E9E
:1044FA001B6E5A0E1C6E620E1D6E020E1E6E28C0B8
:10450A002CF029C02DF02AC02EF02BC02FF0020E5D
:10451A00D8902C362D362E362F36E82EF9D72CC0C9
:10452A001FF02DC020F02EC021F02FC022F0C8ECC1
:10453A0021F01B04C86E800EC76E280EC66E000ED0
:10454A00C56E1200EFC0F3F0F0C0F4F0000E0001E7
:10455A00F66F000EF56F13D0EDC0D1F0EEC0D2F0B9
:10456A00F30ED36F000ED46FF1C0D5F0F2C0D6F0BF
:10457A00ECEC0CF00001D151F527D251F623F3C02F
:10458A00F6FFF4C0F7FF0800F5500009D8A4E4D7F5
:10459A00F5C0EDF0F6C0EEF01200040E01010C6F4A
:1045AA00010E0D6F00C10EF101C10FF1000E116F66
:1045BA00000E106F000E136F000E126F0E0E000128
:1045CA00ED6F010EEE6F02C1EFF003C1F0F00C0EB9
:1045DA00F16F010EF26FA7EC22F0010110510025D4
:1045EA00D96E11510121DA6E000EDF6E12001DC064
:1045FA0021F01EC022F01BC023F01CC024F0215061
:10460A001F6E2250206E214A222A1FC0F6FF20C0A8
:10461A00F7FF000EF86E23C0D9FF24C0DAFF234A41
:10462A00242A0F0EF76403D00800F55005D0F6CF00
:10463A00E1FFF7CFE2FFE750DF6EDF50D8B4120098
:10464A00DED7000E896E000E8A6E000E8B6E000E8B
:10465A008C6E000E8D6EC00E926EF70E936E800EEB
:10466A00946E030E956E000EC26E0F0EC16EC08E52
:10467A00000EB56EB496B10EC06EF292F288F09248
:10468A00F088F18CF090F086F18AF28EF28C89989B
:10469A00899A120054505510D8A405D054C03DF040
:1046AA0055C03EF006D0FF0E54243D6EFF0E552035
:1046BA003E6E3CC08DF1000E01018E6F3AC02FF0A4
:1046CA003BC030F08D0E316E010E326E3DC033F0BC
:1046DA003EC034F0AFEC20F02FC03AF030C03BF0CF
:1046EA001200030E1F141F6E206A0F0E2114216E72
:1046FA00226A1F042010D8A404D0400E2126000EDE
:10470A002222020E1F182010D8A404D0100E21262F
:10471A00000E2222030E1F182010D8A404D0500E17
:10472A002126000E22222150800953EC25F0120086
:10473A00BF0E236EFF0E246E21C025F022C026F084
:10474A002350252624502622265006E11A0E255CDF
:10475A00D8B002D0010E01D0000E276E286A275069
:10476A002810D8B406D0200E2110216E2250226EB5
:10477A00120021C021F022C022F01200000E226E87
:10478A00000E216E0CD08C8421501E24D96E22502A
:10479A001F20DA6EDF503DEC25F0214A222A2150F3
:1047AA001E24D96E22501F20DA6EDF50D8B41200B0
:1047BA0021501E24D96E22501F20DA6E0A0EDE18EE
:1047CA00D8B41200E0D7000E481A000E491A000E9B
:1047DA004A1A800E4B1A44C034F045C035F046C020
:1047EA0036F047C037F048C038F049C039F04AC0FF
:1047FA003AF04BC03BF02CEC14F034C044F035C016
:10480A0045F036C046F037C047F01200000E151AC0
:10481A00000E161A000E171A800E181A11C001F08F
:10482A0012C002F013C003F014C004F015C005F062
:10483A0016C006F017C007F018C008F0B2EC15F061
:10484A0001C011F002C012F003C013F004C014F04A
:10485A001200010E216E200E1B181C10D8B414D0A1
:10486A00F70E1D6EFF0E1E6E1BC01FF01CC020F03F
:10487A001D501F261E502022205004E1050E1F5CE9
:10488A00D8A002D0000E216E21C01BF01C6A1200B3
:10489A00000E2E6E000E2D6E0BD02CC01FF0206A5B
:1048AA002AC021F02BC022F011EC20F02D4A2E2A2A
:1048BA002D502824D96E2E502920DA6EDF502C6E06
:1048CA002C50D8B41200E9D7BF0E1D6EFF0E1E6E13
:1048DA001BC01FF01CC020F01D501F261E50202296
:1048EA00205006E11A0E1F5CD8B002D0010E01D08A
:1048FA00000E1B6E1C6A1200D00E1D6EFF0E1E6E7D
:10490A001BC01FF01CC020F01D501F261E50202265
:10491A00205006E10A0E1F5CD8B002D0010E01D069
:10492A00000E1B6E1C6A12001B501C101D101E105C
:10493A00D8B408D0000E1B1A000E1C1A000E1D1A3D
:10494A00800E1E1A1BC01BF01CC01CF01DC01DF0DF
:10495A001EC01EF012001BC01DF01CC01EF002D0AB
:10496A001B4A1C2A1BC0D9FF1CC0DAFFDF50D8A47F
:10497A00F7D71D501B5C1B6E1E501C581C6E120074
:10498A00000EF2BE010E1B6EF29E8C86530EE82EAE
:10499A00FED700F08C96C80E00D0E82EFDD71BB0CB
:1049AA0002D0F29E01D0F28E120094849482C80E34
:1049BA00CB6EBD9EBD9CBD86BD84BD92BD90BA86A0
:1049CA00BA84BA92BA90CA80CA82CA8494949492D7
:1049DA0012001B501D02F3CF1FF0F4CF20F01B5022
:1049EA001E02F35020261C501D02F35020261FC021
:1049FA001BF020C01CF012005F506018D8A402D02F
:104A0A00FF0E1200400E5F24D96EDA6A020EDA2215
:104A1A00DF501B6E5F283F0B5F6E1B5012005F500A
:104A2A0060C01DF01E6A1D5E000E1E5A400E1D2635
:104A3A00000E1E223F0E1D141B6E1C6A12001B6EF6
:104A4A00000E5E24D96EDA6A020EDA221BC0DFFF7C
:104A5A005E283F0B5E6E9D8812001C6E8C500F0BF9
:104A6A008C6E1C38F00B8C108C6EC5EC24F0120086
:104A7A001D6E1D380F0B32EC25F01D5032EC25F05F
:104A8A00120089908994899289968998899A120044
:104A9A001E6E8C841E503DEC25F012001E6E8C9406
:104AAA001E503DEC25F0120067EC25F063EC25F072
:104ABA0012006FEC25F06BEC25F0120089928996B2
:104ACA008980120089928996898412008990899432
:104ADA00898212008990899489861200286E756CE1
:034AEA006C290034
:104AEE008998898A1200899A898812000000924258
:044AFE0000009242E0
:020000040020DA
:08000000FFFFFFFFFFFFFFFF00
:020000040030CA
:0E000000FF061F1EFF8381FF0F400FE00F4021
:00000001FF
