:020000040000FA
:0400000007EF00F016
:0A0008007F8283ED13F03BEF12F04E
:10100000003132334134353642373839432A3023C0
:101010004400501040000410253032782F25303223
:10102000782F32302530327800253032783A25302A
:1010300032783A253032780043555252454E545F4B
:1010400054494D450052756E6E696E672E2E2E0006
:1010500053544152545F54494D4500537461727466
:101060002052756E0056696577204C6F6773004992
:101070004E4720484552450052554E4E494E470076
:101080004C4F474C495354004C6F672031004C6F14
:10109000672032004C6F672033004C6F67203400AC
:0D10A000484F4D450044415445002A0000D2
:1010AE0049C0D9FF4AC0DAFFDECFF6FFDDCFF7FF2A
:1010BE000800F550250AD8A458D149C0D9FF4AC016
:1010CE00DAFFDE2A000EDD22000E0001E26F000EB6
:1010DE00E16FE1C0E5F0E2C0E6F0E369E469000E1D
:1010EE005A6E000E19D00001E58149C0D9FF4AC0E1
:1010FE00DAFFDE2A000EDD2232D00001E583F5D7BD
:10110E000001E585F2D70001E587EFD70001E589FB
:10111E00ECD7000E5A6E010E596E21D049C0D9FF80
:10112E004AC0DAFFDECFF6FFDDCFF7FF0800F5503D
:10113E004D6E4E6A4E50000AD8A4EBD74D50200A81
:10114E00D8B4E1D7030AD8B4E1D7080AD8B4D8D7AF
:10115E00060AD8B4C8D71D0AD8B4CFD7DAD7595093
:10116E005A10D8B4DBD70001E5B1E59349C0D9FFD9
:10117E004AC0DAFFDECFF6FFDDCFF7FF0800F550ED
:10118E002A0AD8A423D049C0D9FF4AC0DAFFDE2AE2
:10119E00000EDD224BC0D9FF4CC0DAFFDFCF4DF081
:1011AE00020EDE26DFCF4EF0000EDD224DC0D9FF3F
:1011BE004EC0DAFFDECFE1F0DDCFE2F0E2AF3FD09E
:1011CE00E581E16DE21FD8B0E22B39D049C0D9FFDD
:1011DE004AC0DAFFDECF08F0DDCF09F0F7EC0CF0F5
:1011EE0008C0E1F009C0E2F007D049C0D9FF4AC0FB
:1011FE00DAFFDE2A000EDD22D00E4D6EFF0E4E6E91
:10120E0049C0D9FF4AC0DAFFDECFF6FFDDCFF7FFC8
:10121E000800F5504F6E506A4D504F264E505022DA
:10122E00505006E10A0E4F5CD8B002D0010E01D02C
:10123E00000E5B6E5C6A5B505C10D8A4D6D749C0BA
:10124E00D9FF4AC0DAFFDECFF6FFDDCFF7FF080089
:10125E00F550780AD8B40DD049C0D9FF4AC0DAFF8C
:10126E00DECFF6FFDDCFF7FF0800F550580AD8A401
:10127E004DD049C0D9FF4AC0DAFFDECFF6FFDDCF31
:10128E00F7FF0800F5CF5DF049C0D9FF4AC0DAFF7D
:10129E00DE2A000EDD224BC0D9FF4CC0DAFFDFCFB5
:1012AE004DF0020EDE26DFCF4EF0000EDD224DC0D9
:1012BE00D9FF4EC0DAFFDECF4FF0DDCF50F04FC07A
:1012CE0051F050C052F0536A546A556A566A576AC2
:1012DE00586A47C020F048C021F051C022F052C0D9
:1012EE0023F053C024F054C025F055C026F056C04C
:1012FE0027F057C028F058C029F05DC02AF012EC34
:10130E000BF020C047F021C048F0120049C0D9FFB1
:10131E004AC0DAFFDECFF6FFDDCFF7FF0800F5504B
:10132E00250AD8A416D049C0D9FF4AC0DAFFDE2A52
:10133E00000EDD22000E066E250E056E47C007F06C
:10134E0048C008F053EC0FF0000E486E010E476EC9
:10135E00120049C0D9FF4AC0DAFFDE2A000EDD2294
:10136E00000E486E000E476E120049C0D9FF4AC0EB
:10137E00DAFFDECFF6FFDDCFF7FF0800F550056E82
:10138E00066A47C007F048C008F053EC0FF049C09A
:10139E00D9FF4AC0DAFFDE2A000EDD22D5D7000EB5
:1013AE00066E000E056E000E086E000E076EC8EC7F
:1013BE0011F0A8C0D9FFA9C0DAFFA00EDE1874E1A3
:1013CE00100EDE18D8A470D0A8C07AF0A9C07BF099
:1013DE0097EC0DF0000120EE02F0A851D926A9518C
:1013EE00DA22DECF05F0DDCF06F0FFEC10F0000EB6
:1013FE00066E010E056E000E086E000E076EC8EC2E
:10140E0011F0000120EE04F0A851D926A951DA22DC
:10141E00DECF05F0DDCF06F0FFEC10F0000E066E0D
:10142E00020E056E000E086E000E076EC8EC11F06F
:10143E00000120EE06F0A851D926A951DA22DECFFE
:10144E0005F0DDCF06F0FFEC10F0000E066E030E79
:10145E00056E000E086E000E076EC8EC11F000014E
:10146E0020EE08F0A851D926A951DA22DECF05F0D8
:10147E00DDCF06F0FFEC10F0000120EE22F0A851B7
:10148E00D926A951DA22DECF05F0DDCF06F0000E07
:10149E00086E0F0E076EC8EC11F0AA0E056E100E38
:1014AE00066EFFEC10F01200A8C0D9FFA9C0DAFF3B
:1014BE00780EDE1846E1100EDE18D8A442D0A8C071
:1014CE007AF0A9C07BF097EC0DF0000120EE02F04F
:1014DE00A851D926A951DA22DECF05F0DDCF06F0CC
:1014EE00FFEC10F0000E066E010E056E000E086E7B
:1014FE00000E076EC8EC11F0000120EE04F0A851AA
:10150E00D926A951DA22DECF05F0DDCF06F0FFECA9
:10151E0010F0000E066E020E056E000E086E000E26
:10152E00076EC8EC11F0000120EE06F0A851D92686
:10153E00A951DA22DECF05F0DDCF06F0FFEC10F078
:10154E001200000120EE02F0A851D926A951DA228C
:10155E00DECF05F0DDCF06F0FFEC10F0000E066ECC
:10156E00010E056E000E086E000E076EC8EC11F02F
:10157E00000120EE04F0A851D926A951DA22DECFBF
:10158E0005F0DDCF06F0FFEC10F0000E066E020E39
:10159E00056E000E086E000E076EC8EC11F000010D
:1015AE0020EE06F0A851D926A951DA22DECF05F099
:1015BE00DDCF06F0FFEC10F0000E066E030E056E8A
:1015CE00000E086E000E076EC8EC11F0000120EE42
:1015DE0008F0A851D926A951DA22DECF05F0DDCFC9
:1015EE0006F0FFEC10F0000120EE22F0A851D926F3
:1015FE00A951DA22DECF05F0DDCF06F0000E086E1F
:10160E000F0E076EC8EC11F0AA0E056E100E066EC8
:10161E00FFEC10F012000001E4AFE593E4BF05D03B
:10162E00E45108E1E305D8B005D0000E386E010E86
:10163E00376E04D0E3C037F0E4C038F0E1C039F0C3
:10164E00E2C03AF0E5A904D0FE0E3926FF0E3A228A
:10165E0022C03BF023C03CF024C03DF025C03EF03C
:10166E0026C03FF027C040F028C041F029C042F00C
:10167E00000E446E1F0E436E000E0101AF6F93D02D
:10168E004306D8A044060F0E3B14456E466A46BE6E
:10169E0008D0465004E10A0E455CD8A002D0570E81
:1016AE0001D0300E4524456E000E4620466EBF0E0C
:1016BE002B6EFF0E2C6E2A502D6E2E6A2B502D2661
:1016CE002C502E222E5006E11A0E2D5CD8B002D0D0
:1016DE00010E01D0000E336E346A33503410D8B47C
:1016EE0027D09F0E2B6EFF0E2C6E200E45102D6EEA
:1016FE00000E46102E6E2B502D262C502E222E50C4
:10170E0006E11A0E2D5CD8B002D0010E01D0000EEB
:10171E00356E366A35503610D8B40AD045C007F04B
:10172E0046C008F016EC12F007C045F008C046F0AF
:10173E00900E4324D96E010E4420DA6E45C0DFFFB1
:10174E003706D8A038063906D8A03A063BC02BF08B
:10175E003CC02CF03DC02DF03EC02EF03FC02FF00F
:10176E0040C030F041C031F042C032F0050E09D019
:10177E00D8903232313230322F322E322D322C324C
:10178E002B32E82EF5D72BC03BF02CC03CF02DC0F1
:10179E003DF02EC03EF02FC03FF030C040F031C0C3
:1017AE0041F032C042F044BE21D0445004E1020E5A
:1017BE00435CD8A01BD03B503C103D103E103F1058
:1017CE00401041104210D8A45BD738BE05D0385017
:1017DE0002E13704D8B054D73ABE08D03A5003E1EC
:1017EE003904D8A003D00001E5B34AD70001E5A91A
:1017FE0016D04306D8A04406900E4324D96E010E8F
:10180E004420DA6E2AC0DFFF4306D8A04406900EAD
:10181E004324D96E010E4420DA6E300EDF6E20C0E6
:10182E0015F021C016F0900E4324176E010E4420C1
:10183E00186E39C019F03AC01AF0A3EC0FF015C0AB
:10184E0020F016C021F01200000E8C6E000E946E69
:10185E00000E956E93820F0EC16EF0863AEC11F06B
:10186E00A00E0E6E860E0F6E010E106E000E116E15
:10187E006FEC11F012EC13F0F28E21EE60F010EE20
:10188E00AFF02F0EDBCFE3FFE806FCE2AF0E000158
:10189E00A86F000EA96FD6EC09F0230E0001EA6FB7
:1018AE00390EE96F370EE86F010EEC6F010EED6F1A
:1018BE00190EEE6F010EEB6FE80E046E000E056E44
:1018CE002CEC0EF00001E751D8B482D0000EE76F79
:1018DE0081380F0B0F0BAD6F010EAD25F66EF76A4B
:1018EE00100EF7220800F5CFAEF0300EAE19D8A4C8
:1018FE0012D0AF0E096E000E0A6E20EED9F001D88E
:10190E000AD00500FA6EDE50FD6EDE50FE6EF85007
:10191E00FF6EFA501200320E0001AE19D8A412D08A
:10192E00AF0E096E000E0A6E20EED7F001D80AD067
:10193E000500FA6EDE50FD6EDE50FE6EF850FF6E44
:10194E00FA501200420E0001AE19D8A41ED0AF0EEE
:10195E00016E000E026E20EEDDF001D80AD00500F9
:10196E00FA6EDE50FD6EDE50FE6EF850FF6EFA50CF
:10197E001200010E9FEC13F0110E0001AC6F3A0E27
:10198E00E82EFED7AC2FFCD700F0440E0001AE19A6
:10199E00D8A41ED0AF0E7A6E000E7B6E20EEDBF05A
:1019AE0001D80AD00500FA6EDE50FD6EDE50FE6ED6
:1019BE00F850FF6EFA501200010E9FEC13F0110E4C
:1019CE000001AC6F3A0EE82EFED7AC2FFCD700F01C
:1019DE00AF0E0001A86F000EA96FD6EC09F072D7FA
:1019EE00000E166E000E156E000E0F6E000E0E6EB1
:1019FE0002D0084A092A010E146E08C0F6FF09C06B
:101A0E00F7FF0800F550200AD8B418D0F70E0A6E6A
:101A1E00FF0E0B6E08C0F6FF09C0F7FF0800F55069
:101A2E000C6E0D6A0A500C260B500D220D5004E15F
:101A3E00050E0C5CD8A002D0000E146E14C010F06F
:101A4E00116A10501110D8B408D0D3D7000E0F6EF3
:101A5E00010E0E6E084A092A2ED008C0F6FF09C0E4
:101A6E00F7FF0800F5500A6E0B6A0B50000AD8A457
:101A7E0022D00A502B0AD8B4EDD7060AD8B4E6D72E
:101A8E001AD015C001F016C002F0000E046E0A0E38
:101A9E00036E53EC13F008C0F6FF09C0F7FF080001
:101AAE00F550015E000E025A300E0124156E000E26
:101ABE000220166ECFD7D00E0A6EFF0E0B6E08C028
:101ACE00F6FF09C0F7FF0800F5500C6E0D6A0A50BC
:101ADE000C260B500D220D5006E10A0E0C5CD8B0F0
:101AEE0002D0010E01D0000E126E136A12501310A6
:101AFE00D8A4C7D70E500F10D8A40DD015C00AF019
:101B0E0016C00BF00A1E0B1E0A4A0B2A0AC008F05A
:101B1E000BC009F0120015C008F016C009F0120033
:101B2E00000E066E000E056E000E086E000E076E9D
:101B3E00C8EC11F0E80E046E000E056E96EC0EF079
:101B4E007AC0D9FF7BC0DAFFA00EDE1855E1100E69
:101B5E00DE18D8A451D0000E066E000E056E000ED3
:101B6E00086E000E076EC8EC11F0940E666E000E35
:101B7E00676E290E686E100E696EEAC06AF06B6AA7
:101B8E00E9C06CF06D6AE8C06EF06F6AEFEC11F0B0
:101B9E0020EE02F07A50D9267B50DA22940EDE6EB9
:101BAE00000EDD6E800E666E000E676E180E686E8D
:101BBE00100E696EECC07CF03F0E7C167C506A6E87
:101BCE006B6AEDC07DF03F0E7D167D506C6E6D6ABA
:101BDE00EEC07EF03F0E7E167E506E6E6F6AEFEC9C
:101BEE0011F020EE04F07A50D9267B50DA22800EC6
:101BFE00DE6E000EDD6E12007AC0D9FF7BC0DAFFFA
:101C0E00780EDE1821E1100EDE18D8A41200940E04
:101C1E00666E000E676E290E686E100E696EEAC053
:101C2E006AF06B6AE9C06CF06D6AE8C06EF06F6ABC
:101C3E00EFEC11F020EE06F07A50D9267B50DA2226
:101C4E00940EDE6E000EDD6E1200B4EC13F0000E7C
:101C5E00036ED00E026EABEC13F0000E036E000E90
:101C6E00026EABEC13F004C0D9FF05C0DAFFDF50F3
:101C7E00066E0650026E036AABEC13F020EE01F016
:101C8E000450D9260550DA22DF50066E0650026E39
:101C9E00036AABEC13F020EE02F00450D926055087
:101CAE00DA22DF50066E0650026E036AABEC13F0BA
:101CBE0020EE03F00450D9260550DA22DF50066ECE
:101CCE000650026E036AABEC13F020EE04F00450E3
:101CDE00D9260550DA22DF50066E0650026E036AD0
:101CEE00ABEC13F020EE05F00450D9260550DA22A5
:101CFE00DF50066E0650026E036AABEC13F020EE58
:101D0E0006F00450D9260550DA22DF50066E065032
:101D1E00026E036AABEC13F0B0EC13F01200B4ECED
:101D2E0013F0000E036ED00E026EABEC13F0000E2D
:101D3E00036E000E026EABEC13F0B0EC13F0B4ECCD
:101D4E0013F0000E036ED10E026EABEC13F0000E0C
:101D5E0066EC13F004C0D9FF05C0DAFFDF6E20EE8B
:101D6E0001F00450D9260550DA22000E66EC13F06D
:101D7E00DF6E20EE02F00450D9260550DA22000E56
:101D8E0066EC13F0DF6E20EE03F00450D9260550FA
:101D9E00DA22000E66EC13F0DF6E20EE04F0045033
:101DAE00D9260550DA22000E66EC13F0DF6E20EE17
:101DBE0005F00450D9260550DA22000E66EC13F019
:101DCE00DF6E20EE06F00450D9260550DA22010E01
:101DDE0066EC13F0DF6EB0EC13F012007AC0D9FF90
:101DEE007BC0DAFFA00EDE1856E1100EDE18D8A466
:101DFE0012003BD021EE00F07AC0E1FF7BC0E2FF83
:101E0E002F0EDBCFE3FFE806FCE26F0E056E100E21
:101E1E00066EFFEC10F0800E666E000E676E290ED9
:101E2E00686E100E696EEAC06AF06B6AE9C06CF0FB
:101E3E006D6AE8C06EF06F6AEFEC11F020EE04F000
:101E4E007A50D9267B50DA22800EDE6E000EDD6EC1
:101E5E00120021EE30F07AC0E1FF7BC0E2FF2F0EC0
:101E6E00DBCFE3FFE806FCE2120020EE22F07A5010
:101E7E00D9267B50DA22DECF7CF0DDCF7DF07D508F
:101E8E00000AD8A412007C50020AD8B4B3D7010AB3
:101E9E00D8A41200DED7120007500810D8B404D010
:101EAE0007500810D8A404D00550A5EC13F012006A
:101EBE0020EE04F00750D9260850DA22DE50DE104C
:101ECE00D8B416D020EE04F00750D9260850DA22E6
:101EDE0010EE02F00750E1260850E222DE50E65CDA
:101EEE00E650800A0D6EDE50800A0D58D8B01200F2
:101EFE0020EE02F00750D9260850DA22DECF09F084
:101F0E00DDCF0AF007C0D9FF08C0DAFFDECF0BF035
:101F1E00DDCF0CF009500B24D96E0A500C20DA6E6E
:101F2E0005C0DFFF20EE02F00750D9260850DA2256
:101F3E00DE2A000EDD2212000001E5A10AD017C034
:101F4E000EF018C00FF015C010F016C011F07DEC99
:101F5E0012F01ABE05D019C01EF01AC01FF004D020
:101F6E00000E1F6E000E1E6E000E1D6E000E1C6EFD
:101F7E000CD0000E066E200E056E15C007F016C0B2
:101F8E0008F053EC0FF01C4A1D2A1E501C5C1D500D
:101F9E00800A1B6E1F50800A1B58D8A0EAD700017A
:101FAE00E5B10AD017C00EF018C00FF015C010F032
:101FBE0016C011F07DEC12F017C001F018C002F03F
:101FCE0029EC13F01E500124156E1F500220166EC0
:101FDE0012007810451050103810AB1000000000A1
:101FEE0000000000000000000000000000000000E3
:101FFE0000000000000000000000000000000000D3
:10200E000000801088108E1094109A1000000000AE
:10201E0000000000000000000000000000000000B2
:10202E00000000000000000003007020F620EA1DF2
:10203E00F625A0104010A5105B10651000000000E2
:10204E000000000000000000000000000000000082
:10205E00000000000200020003007020F620EA1DBE
:10206E00F62520EE24F00950D9260A50DA2210EE79
:10207E0022F00950E1260A50E222DE50E61804E171
:10208E00DE50E618D8B4120020EE22F00950D92600
:10209E000A50DA22DECF05F0DDCF06F0000E086E14
:1020AE000F0E076EC8EC11F0200EA5EC13F020EE0B
:1020BE0022F00950D9260A50DA22DE06000EDD5A29
:1020CE0020EE22F00950D9260A50DA22DECF05F092
:1020DE00DDCF06F0000E086E0F0E076EC8EC11F085
:1020EE002A0EA5EC13F0120020EE26F00950D92688
:1020FE000A50DA2210EE22F00950E1260A50E222AE
:10210E00DE50E61804E1DE50E618D8B4120020EED8
:10211E0022F00950D9260A50DA22DECF05F0DDCFA3
:10212E0006F0000E086E0F0E076EC8EC11F0200EB2
:10213E00A5EC13F020EE22F00950D9260A50DA222F
:10214E00DE2A000EDD2220EE22F00950D9260A509A
:10215E00DA22DECF05F0DDCF06F0000E086E0F0E90
:10216E00076EC8EC11F02A0EA5EC13F01200000E4B
:10217E00096E000E0A6E000E0B6E000E0C6E0550F0
:10218E00061007100810D8B42AD0010E0D6E06D016
:10219E00D89005360636073608360D2A08AEF8D71B
:1021AE00D89009360A360B360C360550015C0650AF
:1021BE0002580750035808500458D8A009D00550AB
:1021CE00015E0650025A0750035A0850045A0980FD
:1021DE00D89008320732063205320D2EE1D709C0EB
:1021EE0001F00AC002F00BC003F00CC004F01200A4
:1021FE00000E0A6E000E096E1BD009500524076EE4
:10220E000A500620086E07C0F6FF08C0F7FF000E42
:10221E00F86E0F0EF76403D00800F55005D0F6CF18
:10222E00E1FFF7CFE2FFE750A5EC13F0094A0A2AC7
:10223E0009500524076E0A500620086E07C0F6FFE7
:10224E0008C0F7FF000EF86E0F0EF76403D00800FB
:10225E00F55005D0F6CFE1FFF7CFE2FFE7500009CA
:10226E00D8B41200CAD7310E056EB20EE82EFED7C4
:10227E00052EFCD700D08C94030E78EC13F0110EC3
:10228E00056E3A0EE82EFED7052EFCD700D0030EB3
:10229E0078EC13F07D0EE82EFED7320E8DEC13F097
:1022AE00280E8DEC13F0080E8DEC13F0010E8DEC54
:1022BE0013F0110E056E3A0EE82EFED7052EFCD742
:1022CE0000D0060E8DEC13F00F0E9FEC13F01200E3
:1022DE00C69A94869488800E016E960E026E980EA3
:1022EE00036E000E046E0EC012F00FC013F010C07D
:1022FE0014F011C015F0020ED890123613361436A3
:10230E001536E82EF9D712C005F013C006F014C02A
:10231E0007F015C008F0BEEC10F00104C86E800E78
:10232E00C76E280EC66E000EC56E120060C064F039
:10233E0061C065F0000E0001E06F000EDF6F13D07C
:10234E005EC047F05FC048F0640E496E000E4A6EE4
:10235E0062C04BF063C04CF057EC08F047500001E0
:10236E00DF274850E02364C0F6FF65C0F7FF080082
:10237E00F5500009D8A4E4D7DFC05EF0E0C05FF0EE
:10238E001200030E0514056E066A0F0E0714076E73
:10239E00086A05040610D8A404D0400E0726000EC5
:1023AE000822020E05180610D8A404D0100E072617
:1023BE00000E0822030E05180610D8A404D0500EE5
:1023CE000726000E0822075080099FEC13F012001A
:1023DE006A0E726E000E736E66C074F067C075F092
:1023EE00000E776E000E766E000E796E000E786E11
:1023FE00740E5E6E000E5F6E68C060F069C061F0B4
:10240E00720E626E000E636E9DEC11F076506624B5
:10241E00D96E77506720DA6E000EDF6E12009F0EB7
:10242E00096EFF0E0A6E07C00BF008C00CF00950C3
:10243E000B260A500C220C5006E11A0E0B5CD8B07B
:10244E0002D0010E01D0000E0D6E0E6A0D500E1050
:10245E00D8B405D05F0E0714076E086A120007C0C5
:10246E0007F008C008F01200E00EF66E1F0EF76EB1
:10247E00000EF86E01EE00F010EE90F00900F5CFB0
:10248E00EEFFE550E150FAE101EE90F0200EEE6A1B
:10249E00E806FDE100EEDFF0100EEE6AE806FDE163
:1024AE007F907F92000EF86E00012BEF0CF0010E64
:1024BE00076E200E01180210D8B414D0F70E036E5A
:1024CE00FF0E046E01C005F002C006F00350052693
:1024DE0004500622065004E1050E055CD8A002D079
:1024EE00000E076E07C001F0026A1200000E146E95
:1024FE00000E136E0BD012C005F0066A10C007F066
:10250E0011C008F053EC0FF0134A142A13500E2486
:10251E00D96E14500F20DA6EDF50126E1250D8B4EE
:10252E001200E9D79F0E036EFF0E046E200E0110EF
:10253E00056E000E0210066E03500526045006228C
:10254E00065006E11A0E055CD8B002D0010E01D07D
:10255E00000E016E026A12009F0E036EFF0E046ED5
:10256E0001C005F002C006F00350052604500622F5
:10257E00065006E11A0E055CD8B002D0010E01D04D
:10258E00000E016E026A1200BF0E036EFF0E046E85
:10259E0001C005F002C006F00350052604500622C5
:1025AE00065006E11A0E055CD8B002D0010E01D01D
:1025BE00000E016E026A1200D00E036EFF0E046E44
:1025CE0001C005F002C006F0035005260450062295
:1025DE00065006E10A0E055CD8B002D0010E01D0FD
:1025EE00000E016E026A120001C0D9FF02C0DAFFAE
:1025FE00800EDE180FE1100EDE18D8A4120021EEA8
:10260E0060F001C0E1FF02C0E2FF2F0EDBCFE3FF5F
:10261E00E806FCE21200B4EC13F0000E036ED00ECE
:10262E00026EABEC13F0000E036E070E026EABECF7
:10263E0013F0000E036E000E026EABEC13F0B0EC56
:10264E0013F0120001C003F002C004F002D0014AE0
:10265E00022A01C0D9FF02C0DAFFDF50D8A4F7D793
:10266E000350015C016E04500258026E1200000EFF
:10267E00F2BE010E016EF29E8C86140EE82EFED76F
:10268E0000D08C96530EE82EFED700F001B002D08B
:10269E00F29E01D0F28E120001500302F3CF05F02C
:1026AE00F4CF06F001500402F35006260250030246
:1026BE00F350062605C001F006C002F01200026EAD
:1026CE0096EC13F0C58696EC13F0C9CF03F096EC9A
:1026DE0013F002B002D0C59A01D0C58AC588035046
:1026EE001200026E8C500F0B8C6E0238F00B8C1099
:1026FE008C6E3EEC13F012000600F0B0F0A604D083
:10270E00010E0001E76FF0907F921100036E033807
:10271E000F0B78EC13F0035078EC13F01200C7B4E3
:10272E00FED7C5CF01F01F0E0116D8B41200F7D791
:10273E00046E8C9404508DEC13F01200046E8C8495
:10274E0004508DEC13F0120096EC13F002C0C9FF8A
:10275E00120096EC13F0C584120096EC13F0C580AF
:02276E00120057
:020000040020DA
:08000000FFFFFFFFFFFFFFFF00
:020000040030CA
:0E000000FF021F1EFF8381FF0F400FE00F4025
:00000001FF
